:1000000008C1000036C1000034C1000032C1000048
:1000100030C100002EC100002CC100002AC1000028
:1000200028C1000026C1000024C1000022C1000038
:1000300020C100001EC100001CC100001AC1000048
:1000400018C1000016C1000014C1000012C1000058
:1000500010C100000EC100000CC10000A7C30000C9
:1000600008C10000B7C200008CC2000002C100003D
:1000700000C10000FEC00000FCC00000FAC000008B
:10008000F8C00000F6C00000F4C00000F2C000009C
:10009000F0C00000EEC00000ECC00000EAC00000AC
:1000A000E8C00000E6C00000E4C00000E2C00000BC
:1000B000E0C00000DEC00000DCC00000DAC00000CC
:1000C000D8C00000D6C00000D4C00000D2C00000DC
:1000D000D0C00000CEC00000CCC00000CAC00000EC
:1000E000C8C000004F03520341034503490389037D
:1000F00056035A036003640368036E0372037603B6
:1001000089037C038003840300000A0B02090C0DA1
:100110000E080703040100000000000000000000BA
:1001200000000000000000000000000000000000CF
:10013000000000001211100000000000000000008C
:1001400000000000000000000000000000000000AF
:100150002200250028002B002E003100340002016F
:100160000000050108010B01000021002400270008
:100170002A002D00300033000101000004010701B6
:100180000A0105050505070508080808020202021C
:100190000A0A080804040404010101010101010123
:1001A0000303030303030303040707070C0C0C0CEE
:1001B0000C0C0C0C020202020606060606060606D7
:1001C0000B0B0B0B0B0B0B0B010210202008081064
:1001D00020401020408002010201080402010102B7
:1001E0000408102040808040201008040201800490
:1001F00002018040201008040201080402010102EB
:100200000408102040800102040810204080830A66
:100210007E0A11241FBECFEFD1E2DEBFCDBF00E0CA
:100220000CBF22E0ACE2B2E001C01D92A03EB207DA
:10023000E1F712E0A0E0B2E0EAE9FDE100E00BBF87
:1002400002C007900D92AC32B107D9F711E0C8E0B7
:10025000D1E000E006C021970109802FFE010E9435
:100260008B0CC730D10780E00807A9F7F4D30C94B2
:10027000BC0EC6CE089580E090E00895FC01538D39
:10028000448D252F30E0842F90E0821B930B541770
:1002900010F0CF96089501970895FC01918D828DFD
:1002A000981761F0828DDF01A80FB11D5D968C91CA
:1002B000928D9F5F9F73928F90E008958FEF9FEFD5
:1002C0000895FC01918D828D981731F0828DE80F91
:1002D000F11D858D90E008958FEF9FEF0895FC014B
:1002E000918D228D892F90E0805C9F4F821B910918
:1002F0008F739927089588E392E0F1DF21E0892B3D
:1003000009F420E0822F0895FC01848DDF01A80FFD
:10031000B11DA35ABF4F2C91848D90E001968F732D
:100320009927848FA689B7892C93A089B1898C914C
:10033000837080648C93938D848D981306C002889B
:10034000F389E02D80818F7D80830895EF92FF9265
:100350000F931F93CF93DF93EC0181E0888F9B8DE8
:100360008C8D981305C0E889F989808185FD25C0A9
:10037000F62E0B8D10E00F5F1F4F0F731127E02E2D
:100380008C8DE8120BC00FB607FCFACFE889F9890B
:10039000808185FFF5CFCE01B7DFF2CF8B8DFE01D7
:1003A000E80FF11DE35AFF4FF0829FB7F8940B8FCF
:1003B000EA89FB89808180620AC09FB7F894EE8940
:1003C000FF896083E889F9898081837080648083F4
:1003D0009FBF81E090E0DF91CF911F910F91FF903F
:1003E000EF900895CF93DF93EC01888D8823C1F0BF
:1003F000EA89FB89808185FD05C0A889B9898C912E
:1004000086FD0EC00FB607FCF5CF808185FFF2CFC9
:10041000A889B9898C9185FFEDCFCE0175DFE8CF32
:10042000DF91CF9108953FB7F89480913402909175
:100430003502A0913602B091370226B5A89B05C0BF
:100440002F3F19F00196A11DB11D3FBFBA2FA92F53
:10045000982F8827820F911DA11DB11DBC01CD01D0
:1004600042E0660F771F881F991F4A95D1F70895BC
:10047000DF92EF92FF920F931F93CF93DF931F9220
:100480001F92CDB7DEB7DD24D39488E392E027DF57
:10049000892BD1F100912D0210912E02033011050C
:1004A000A4F788E392E0F9DE89831A82E090D9020A
:1004B000F090DA028FEFE81AF80AC7013DD28823DC
:1004C00099F02091D5023091D6028091D902909175
:1004D000DA02BE016F5F7F4F820F931F0E94B50E3D
:1004E000F092DA02E092D9020F5F1F4F10932E02B2
:1004F00000932D020330110541F6D0922C02109288
:100500002E0210922D02C1CF0F900F90DF91CF914C
:100510001F910F91FF90EF90DF900895ECDE811115
:1005200025C080E090E0892B41F080E090E0892BAD
:1005300021F00E94000081111BC080E090E0892B17
:1005400041F080E090E0892B21F00E9400008111B1
:1005500012C080E090E0892B99F080E090E0892B38
:1005600079F00E940000811109C0089581DFD9CF80
:100570000E940000E2CF0E940000EBCF0C9400002C
:1005800008951F920F920FB60F9211240BB60F927F
:100590002F933F934F935F936F937F938F939F938B
:1005A000AF93BF93EF93FF9388E392E0ADDEFF91AB
:1005B000EF91BF91AF919F918F917F916F915F91DB
:1005C0004F913F912F910F900BBE0F900FBE0F9048
:1005D0001F9018951F920F920FB60F9211240BB611
:1005E0000F922F938F939F93EF93FF93E091480285
:1005F000F09149028081E0914E02F0914F0282FD1C
:1006000012C09081809151028F5F8F7320915202AE
:10061000821751F0E0915102F0E0E85CFD4F958FB8
:100620008093510201C08081FF91EF919F918F9142
:100630002F910F900BBE0F900FBE0F901F9018952B
:10064000362F90E0FC01E85FFE4F4491FC01E85337
:10065000FE4F2491FC01EE57FE4F9491992309F42B
:100660006CC0442309F455C050E0FA013197E231DF
:10067000F10508F04EC08827EE58FF4F8F4F0C94BD
:100680008B0C809180008F7707C0809180008F7DD8
:1006900003C080918000877F809380003AC084B53A
:1006A0008F7702C084B58F7D84BD33C08091B00048
:1006B0008F7703C08091B0008F7D8093B00029C0F8
:1006C000809190008F7707C0809190008F7D03C04C
:1006D00080919000877F809390001BC08091A00044
:1006E0008F7707C08091A0008F7D03C08091A0000C
:1006F000877F8093A0000DC0809120018F7707C075
:10070000809120018F7D03C080912001877F80939D
:100710002001E92FF0E0EE0FFF1FE25BFE4FA591F5
:10072000B4919FB7F894311104C08C91209528237F
:1007300002C0EC912E2B2C939FBF08958F929F9215
:10074000AF92BF92CF92DF92EF92FF926B017C014A
:100750006ADE4B015C01C114D104E104F104E9F04B
:1007600062DEDC01CB0188199909AA09BB09883E20
:100770009340A105B10578F321E0C21AD108E10840
:10078000F10888EE880E83E0981EA11CB11CC114EC
:10079000D104E104F10421F7DECFFF90EF90DF9068
:1007A000CF90BF90AF909F908F9008951F920F921F
:1007B0000FB60F9211242F933F938F939F93AF9374
:1007C000BF938091300290913102A0913202B0919A
:1007D000330230912F0223E0230F2D3720F40196AE
:1007E000A11DB11D05C026E8230F0296A11DB11D54
:1007F00020932F028093300290933102A093320213
:10080000B09333028091340290913502A091360268
:10081000B09137020196A11DB11D809334029093CF
:100820003502A0933602B0933702BF91AF919F91EA
:100830008F913F912F910F900FBE0F901F901895A1
:10084000CF92DF92EF92FF920F931F93CF93DF939C
:100850006C017A018B01C0E0D0E0CE15DF0581F09C
:10086000D8016D918D01D601ED91FC910190F0813F
:10087000E02DC6011995892B11F02196EECF7E014E
:10088000C701DF91CF911F910F91FF90EF90DF9003
:10089000CF9008958F929F92AF92BF920F931F9324
:1008A000CF93DF93CDB7DEB7A1970FB6F894DEBF35
:1008B0000FBECDBF19A2423008F44AE08E010F5D91
:1008C0001F4F842E912CA12CB12CA50194010E94C4
:1008D000690CE62FB901CA0101501109EA3014F47C
:1008E000E05D01C0E95CD801EC93232B242B252B80
:1008F00061F70115110569F0F80101900020E9F791
:100900003197AF01401B510BB80188E392E098DFAB
:1009100002C080E090E0A1960FB6F894DEBF0FBE53
:10092000CDBFDF91CF911F910F91BF90AF909F905E
:100930008F9008950E94A80ECF93DF93EC018091D1
:10094000D5029091D602009739F02091D7023091CC
:10095000D8022C173D07B8F4BE016F5F7F4F0E948D
:10096000C80D009791F09093D6028093D502D09352
:10097000D802C093D7022091D9023091DA02232BFA
:1009800011F4FC01108281E001C080E0DF91CF9181
:10099000089590E0FC01E853FE4F2491FC01EE57CE
:1009A000FE4F8491882399F090E0880F991FFC01F5
:1009B000E859FE4FA591B491FC01E25BFE4F859191
:1009C00094918FB7F894EC91E22BEC938FBF08953C
:1009D000CF92DF92EF92FF92CF93DF936C01990F4A
:1009E000EE08FF08F7FE11C06DE288E392E0AEDC8E
:1009F000EC0166277727CB016C197D098E099F09C9
:100A00004AE048DFC80FD91F05C04AE0C701B60158
:100A100041DFEC0142E050E068E272E088E392E0FE
:100A20000FDF8C0F9D1FDF91CF91FF90EF90DF9034
:100A3000CF9008958091D9029091DA02892B31F0FC
:100A40008091D5029091D602009721F41092DB029A
:100A50008BED92E00895789484B5826084BD84B56E
:100A6000816084BD85B5826085BD85B5816085BDA9
:100A700080916E00816080936E0010928100809161
:100A800081008260809381008091810081608093E9
:100A90008100809180008160809380008091B1000E
:100AA00084608093B1008091B00081608093B00039
:100AB000809191008260809391008091910081608B
:100AC000809391008091900081608093900080914C
:100AD000A10082608093A1008091A1008160809339
:100AE000A1008091A00081608093A00080912101ED
:100AF0008260809321018091210181608093210196
:100B00008091200181608093200180917A0084602F
:100B100080937A0080917A00826080937A0080913D
:100B20007A00816080937A0080917A008068809357
:100B30007A001092C1008FE12CDF81E22ADF83E28C
:100B400028DF85E226DF8DE224DF8BE222DF89E2E7
:100B500020DF87E21EDF8EE11CDF80E21ADF82E207
:100B600018DF84E216DF8CE214DF8AE212DF88E20B
:100B700010DF86E20EDFE0914802F091490282E048
:100B80008083E0914402F09145021082E091460298
:100B9000F09147028FEC808310925002E0914C025A
:100BA000F0914D0286E08083E0914A02F0914B0281
:100BB000808180618083E0914A02F0914B028081C4
:100BC00088608083E0914A02F0914B0280818068C6
:100BD0008083E0914A02F0914B0280818F7D808377
:100BE00004E610E080912C02882309F485C48091EA
:100BF000D5029091D602009711F0F6D403C060E0C0
:100C000070E0CB01EB01CB01E3DECE01B8014ED6A3
:100C1000EC01DEDECE01DCDE0DDFFC018081813304
:100C200009F01CC1BE010D2E000C880B990B19D5C3
:100C300023E93AE341E35FE3A0D507D66B01E12C5A
:100C4000F12CEC14FD040CF009C160E08FE1F8DC3C
:100C500060E081E2F5DC60E083E2F2DC60E085E206
:100C6000EFDC60E08DE2ECDC60E08BE2E9DC60E090
:100C700089E2E6DC60E087E2E3DC61E070E080E0EE
:100C800090E05CDD61E08FE1DBDC60E081E2D8DCFC
:100C900060E083E2D5DC61E085E2D2DC61E08DE2F8
:100CA000CFDC60E08BE2CCDC60E089E2C9DC61E0B3
:100CB00087E2C6DC61E070E080E090E03FDD61E06B
:100CC0008FE1BEDC60E081E2BBDC60E083E2B8DCA7
:100CD00060E085E2B5DC61E08DE2B2DC60E08BE2F1
:100CE000AFDC60E089E2ACDC60E087E2A9DC61E0D7
:100CF00070E080E090E022DD61E08FE1A1DC61E066
:100D000081E29EDC60E083E29BDC60E085E298DCCF
:100D100061E08DE295DC61E08BE292DC60E089E2EB
:100D20008FDC60E087E28CDC61E070E080E090E0E6
:100D300005DD60E08FE184DC61E081E281DC60E080
:100D400083E27EDC60E085E27BDC60E08DE278DCE3
:100D500061E08BE275DC60E089E272DC60E087E2F2
:100D60006FDC61E070E080E090E0E8DC60E08FE163
:100D700067DC61E081E264DC61E083E261DC60E029
:100D800085E25EDC60E08DE25BDC61E08BE258DCFA
:100D900061E089E255DC60E087E252DC61E070E00E
:100DA00080E090E0CBDC60E08FE14ADC60E081E253
:100DB00047DC61E083E244DC60E085E241DC60E046
:100DC0008DE23EDC60E08BE23BDC61E089E238DC16
:100DD00060E087E235DC61E070E080E090E0AEDC6E
:100DE00060E08FE12DDC60E081E22ADC61E083E2FB
:100DF00027DC61E085E224DC60E08DE221DC60E05C
:100E00008BE21EDC61E089E21BDC61E087E218DC3A
:100E100061E070E080E090E091DC60E08FE110DC68
:100E200060E081E20DDC60E083E20ADC61E085E203
:100E300007DC60E08DE204DC60E08BE201DC60E076
:100E400089E2FEDB61E087E2FBDB61E070E080E0ED
:100E500090E074DCFFEFEF1AFF0AF3CEEBDDFC014C
:100E60008081823309F01CC1BE010D2E000C880B5D
:100E7000990BF7D323E93AE341E35FE37ED4E5D46A
:100E80006B01E12CF12CEC14FD040CF009C160E0C5
:100E90008FE1D6DB60E081E2D3DB60E083E2D0DB90
:100EA00061E085E2CDDB60E08DE2CADB60E08BE2F1
:100EB000C7DB60E089E2C4DB61E087E2C1DB61E0BF
:100EC00070E080E090E03ADC60E08FE1B9DB60E068
:100ED00081E2B6DB61E083E2B3DB61E085E2B0DBB7
:100EE00060E08DE2ADDB60E08BE2AADB61E089E2ED
:100EF000A7DB61E087E2A4DB61E070E080E090E0E6
:100F00001DDC60E08FE19CDB60E081E299DB61E069
:100F100083E296DB60E085E293DB60E08DE290DBCC
:100F200060E08BE28DDB61E089E28ADB60E087E2F2
:100F300087DB61E070E080E090E000DC60E08FE162
:100F40007FDB61E081E27CDB61E083E279DB60E012
:100F500085E276DB60E08DE273DB61E08BE270DBE3
:100F600061E089E26DDB60E087E26ADB61E070E00E
:100F700080E090E0E3DB60E08FE162DB61E081E252
:100F80005FDB60E083E25CDB60E085E259DB60E030
:100F90008DE256DB61E08BE253DB60E089E250DBFF
:100FA00060E087E24DDB61E070E080E090E0C6DB6E
:100FB00061E08FE145DB61E081E242DB60E083E2FA
:100FC0003FDB60E085E23CDB61E08DE239DB61E044
:100FD0008BE236DB60E089E233DB60E087E230DB26
:100FE00061E070E080E090E0A9DB61E08FE128DB68
:100FF00060E081E225DB60E083E222DB60E085E205
:101000001FDB61E08DE21CDB60E08BE219DB60E05E
:1010100089E216DB60E087E213DB61E070E080E0EC
:1010200090E08CDB61E08FE10BDB60E081E208DBCC
:1010300060E083E205DB61E085E202DB61E08DE2F6
:10104000FFDA60E08BE2FCDA60E089E2F9DA61E085
:1010500087E2F6DA61E070E080E090E06FDB60E06C
:101060008FE1EEDA60E081E2EBDA60E083E2E8DA79
:1010700060E085E2E5DA60E08DE2E2DA60E08BE2F2
:10108000DFDA60E089E2DCDA60E087E2D9DA61E0A9
:1010900070E080E090E052DBFFEFEF1AFF0AF3CE42
:1010A000C9DCFC018081833309F0FFC0BE010D2E35
:1010B000000C880B990BD5D223E93AE341E35FE3B7
:1010C0005CD3C3D36B01E12CF12CEC14FD040CF0C8
:1010D000ECC060E08EE1B4DA60E080E2B1DA60E0BA
:1010E00082E2AEDA61E084E2ABDA60E08CE2A8DAB8
:1010F00060E08AE2A5DA60E088E2A2DA61E086E2F6
:101100009FDA61E070E080E090E018DB60E08EE163
:1011100097DA60E080E294DA61E082E291DA61E0FD
:1011200084E28EDA60E08CE28BDA60E08AE288DAD0
:1011300061E088E285DA61E086E282DA61E070E00F
:1011400080E090E0FBDA60E08EE17ADA60E080E255
:1011500077DA61E082E274DA60E084E271DA60E01A
:101160008CE26EDA60E08AE26BDA61E088E268DAEB
:1011700060E086E265DA61E070E080E090E0DEDA6F
:1011800060E08EE15DDA61E080E25ADA61E082E2FD
:1011900057DA60E084E254DA60E08CE251DA61E030
:1011A0008AE24EDA61E088E24BDA60E086E248DA11
:1011B00061E070E080E090E0C1DA60E08EE140DA6A
:1011C00061E080E23DDA60E082E23ADA60E084E207
:1011D00037DA60E08CE234DA61E08AE231DA60E04A
:1011E00088E22EDA60E086E22BDA61E070E080E0EF
:1011F00090E0A4DA61E08EE123DA61E080E220DAB7
:1012000060E082E21DDA60E084E21ADA61E08CE2FA
:1012100017DA61E08AE214DA60E088E211DA60E06D
:1012200086E20EDA61E070E080E090E087DA61E06B
:101230008EE106DA60E080E203DA60E082E200DA62
:1012400060E084E2FDD961E08CE2FAD960E08AE2F4
:10125000F7D960E088E2F4D960E086E2F1D961E094
:1012600070E080E090E06ADA61E08EE1E9D960E068
:1012700080E2E6D960E082E2E3D961E084E2E0D98D
:1012800061E08CE2DDD960E08AE2DAD960E088E2F0
:10129000D7D961E086E2D4D961E070E080E090E0E7
:1012A0004DDAFFEFEF1AFF0A10CFC4DBFC0180819B
:1012B000843309F0FCC0BE01DD0F880B990BD1D13E
:1012C00023E93AE341E35FE358D2BFD27B01C0E0B8
:1012D000D0E0CE15DF050CF0EAC061E08EE1B0D9B8
:1012E00060E080E2ADD960E082E2AAD961E084E208
:1012F000A7D961E08CE2A4D960E08AE2A1D960E0DC
:1013000088E29ED961E086E29BD961E070E080E0EE
:1013100090E014DA61E08EE193D960E080E290D948
:1013200060E082E28DD960E084E28AD961E08CE2FB
:1013300087D960E08AE284D960E088E281D960E000
:1013400086E27ED961E070E080E090E0F7D961E06C
:101350008EE176D961E080E273D960E082E270D9F3
:1013600060E084E26DD961E08CE26AD961E08AE2F2
:1013700067D960E088E264D960E086E261D961E023
:1013800070E080E090E0DAD960E08EE159D961E068
:1013900080E256D960E082E253D960E084E250D91D
:1013A00060E08CE24DD961E08AE24AD960E088E2EF
:1013B00047D960E086E244D961E070E080E090E0E7
:1013C000BDD960E08EE13CD961E080E239D961E0CD
:1013D00082E236D960E084E233D960E08CE230D931
:1013E00061E08AE22DD961E088E22AD960E086E2F4
:1013F00027D961E070E080E090E0A0D960E08EE164
:101400001FD960E080E21CD961E082E219D960E076
:1014100084E216D960E08CE213D960E08AE210D948
:1014200061E088E20DD960E086E20AD961E070E00F
:1014300080E090E083D960E08EE102D960E080E254
:10144000FFD861E082E2FCD861E084E2F9D860E094
:101450008CE2F6D860E08AE2F3D861E088E2F0D866
:1014600061E086E2EDD861E070E080E090E066D96E
:1014700060E08EE1E5D860E080E2E2D860E082E200
:10148000DFD861E084E2DCD860E08CE2D9D860E0AB
:101490008AE2D6D860E088E2D3D861E086E2D0D88C
:1014A00061E070E080E090E049D9219612CF10927F
:1014B0002C0280E090E040DA2091D5023091D602F3
:1014C000811112C02115310511F0C901D8D2109235
:1014D000D6021092D5021092DA021092D90210921E
:1014E000D8021092D70208C01092DA021092D902E4
:1014F0006AE272E0C90139D411D874CB8091D50267
:101500009091D602BCC210923B0210923A0288EE31
:1015100093E0A0E0B0E080933C0290933D02A09362
:101520003E02B0933F028AE092E0909339028093AA
:10153000380285EC90E0909345028093440284EC5D
:1015400090E0909347028093460280EC90E0909365
:1015500049028093480281EC90E090934B02809383
:101560004A0282EC90E090934D0280934C0286EC0C
:1015700090E090934F0280934E021092510210928D
:10158000520210925302109254021092D6021092FC
:10159000D5021092D8021092D7021092DA0210925D
:1015A000D90280E090E0C8D92091D5023091D602CE
:1015B000811112C02115310511F0C90160D21092BC
:1015C000D6021092D5021092DA021092D90210922D
:1015D000D8021092D70208951092DA021092D9021E
:1015E0006AE272E0C901C1C31F93FC0199278827F1
:1015F000BC01E89411911032E9F3193010F01E305B
:10160000C8F31B3249F01D3241F4689405C012D072
:10161000610F711D811D911D119110531A30B8F386
:101620003EF490958095709561957F4F8F4F9F4FB9
:101630001F910895592F482F372F262F660F771F98
:10164000881F991F660F771F881F991F620F731FCE
:10165000841F951F660F771F881F991F0895E894B0
:1016600009C097FB3EF490958095709561957F4FEA
:101670008F4F9F4F9923A9F0F92F96E9BB27939598
:10168000F695879577956795B795F111F8CFFAF4A8
:10169000BB0F11F460FF1BC06F5F7F4F8F4F9F4FD9
:1016A00016C0882311F096E911C0772321F09EE837
:1016B000872F762F05C0662371F096E8862F70E09D
:1016C00060E02AF09A95660F771F881FDAF7880F77
:1016D0009695879597F9089597F99F6780E870E048
:1016E00060E008959FEF80EC089500240A94161698
:1016F000170618060906089500240A941216130600
:10170000140605060895092E0394000C11F488238D
:1017100052F0BB0F40F4BF2B11F460FF04C06F5FA9
:101720007F4F8F4F9F4F089557FD9058440F551F7F
:1017300059F05F3F71F04795880F97FB991F61F053
:101740009F3F79F087950895121613061406551FCA
:10175000F2CF4695F1DF08C0161617061806991F36
:10176000F1CF86957105610508940895E894BB272B
:1017700066277727CB0197F908950CD0C4CFBCDF3B
:1017800040F0B3DF30F021F45F3F19F0A5CF5111E5
:10179000EECFA8CFC9DF98F39923C9F35523B1F34E
:1017A000951B550BBB27AA2762177307840738F0D0
:1017B0009F5F5F4F220F331F441FAA1FA9F333D02F
:1017C0000E2E3AF0E0E830D091505040E695001CE3
:1017D000CAF729D0FE2F27D0660F771F881FBB1F9F
:1017E000261737074807AB07B0E809F0BB0B802D79
:1017F000BF01FF2793585F4F2AF09E3F510568F0C5
:101800006BCFB5CF5F3FECF3983EDCF386957795D1
:101810006795B795F7959F5FC9F7880F911D9695C6
:10182000879597F90895E1E0660F771F881FBB1F22
:10183000621773078407BA0720F0621B730B840BCF
:10184000BA0BEE1F88F7E095089504D06894B111A3
:101850008ECF089571DF88F09F5790F0B92F9927A8
:10186000B751A0F0D1F0660F771F881F991F1AF0AB
:10187000BA95C9F712C0B13081F078DFB1E00895B0
:1018800075CF672F782F8827B85F39F0B93FCCF331
:10189000869577956795B395D9F73EF490958095A1
:1018A000709561957F4F8F4F9F4F089597FB072E3F
:1018B00016F4009406D077FD08D035D007FC05D08B
:1018C0003EF4909581959F4F0895709561957F4F57
:1018D0000895A1E21A2EAA1BBB1BFD010DC0AA1F71
:1018E000BB1FEE1FFF1FA217B307E407F50720F089
:1018F000A21BB30BE40BF50B661F771F881F991F04
:101900001A9469F760957095809590959B01AC014C
:10191000BD01CF010895EE0FFF1F881F8BBF0790F9
:10192000F691E02D1994AA1BBB1B51E107C0AA1F19
:10193000BB1FA617B70710F0A61BB70B881F991F70
:101940005A95A9F780959095BC01CD0108950F9304
:101950001F93CF93DF938230910510F482E090E0E3
:10196000E091DE02F091DF0220E030E0A0E0B0E0A4
:10197000309719F14081518102811381481759072D
:10198000C8F08417950769F4109731F012960C93FC
:10199000129713961C9327C00093DE021093DF0268
:1019A00022C02115310519F04217530718F49A0186
:1019B000BD01EF01DF01F801DBCF21153105F9F0A1
:1019C000281B390B2430310580F48A819B816115F5
:1019D000710521F0FB019383828304C09093DF02A1
:1019E0008093DE02FE01329644C0FE01E20FF31F37
:1019F0008193919322503109398328833AC02091F1
:101A0000DC023091DD02232B41F42091020230915F
:101A100003023093DD022093DC022091000230911A
:101A200001022115310541F42DB73EB74091040262
:101A300050910502241B350BE091DC02F091DD0290
:101A4000E217F307A0F42E1B3F0B2817390778F095
:101A5000AC014E5F5F4F2417350748F04E0F5F1FF4
:101A60005093DD024093DC028193919302C0E0E049
:101A7000F0E0CF01DF91CF911F910F910895CF93A7
:101A8000DF93009709F481C0FC0132971382128220
:101A9000A091DE02B091DF02109781F420813181A4
:101AA000820F931F2091DC023091DD022817390745
:101AB00051F5F093DD02E093DC0267C0ED0120E018
:101AC00030E0CE17DF0740F44A815B819E0141156B
:101AD0005105F1F0EA01F5CFD383C28340815181F2
:101AE000840F951FC817D90759F488819981840FED
:101AF000951F0296918380838A819B819383828341
:101B00002115310529F4F093DF02E093DE023DC098
:101B1000E901FB83EA8349915991C40FD51FEC1762
:101B2000FD0761F480819181840F951F0296E90180
:101B300099838883828193819B838A83E0E0F0E0AC
:101B400012968D919C911397009719F0FD01DC017D
:101B5000F7CF8D919C9111979D012E5F3F4F820F82
:101B6000931F2091DC023091DD022817390769F4B8
:101B7000309729F41092DF021092DE0202C0138225
:101B80001282B093DD02A093DC02DF91CF91089521
:101B90006F927F928F929F92AF92BF92CF92DF927D
:101BA000EF92FF920F931F93CF93DF93009781F4EF
:101BB000CB01DF91CF911F910F91FF90EF90DF90BC
:101BC000CF90BF90AF909F908F907F906F90BFCE3F
:101BD000FC01E60FF71F9C0122503109E217F307C1
:101BE00008F4A5C0EC01D9010D911C9111970617BD
:101BF0001707A8F00530110508F497C0C80104972D
:101C00008617970708F491C002501109061B170B9D
:101C1000019311936D937C93CF0131DF86C05B01FB
:101C2000A01AB10A4C01800E911EA091DE02B09163
:101C3000DF02612C712CE12CF12C109709F446C0C5
:101C40008D919C911197A815B905B1F56C0142E0F1
:101C5000C40ED11CCA14DB0478F14C018A189B080D
:101C6000640142E0C40ED11C1296BC9012971396E8
:101C7000AC91B5E0CB16D10440F0B282A38391823F
:101C80008082D9016D937C9309C00E5F1F4F800F36
:101C9000911FF90191838083EB2DFA2FE114F10458
:101CA00031F0D7011396FC93EE9312973EC0F09358
:101CB000DF02E093DE0239C06816790608F43C01C1
:101CC0007D0112960D90BC91A02DB7CF8091DC02C2
:101CD0009091DD0288169906E1F466167706C8F43D
:101CE0008091000290910102009741F48DB79EB758
:101CF0004091040250910502841B950BE817F907E7
:101D0000B0F4F093DD02E093DC02F90171836083AB
:101D10000CC0CB011CDE7C01009749F0A801BE017C
:101D20001BD0CE01ACDEC70104C0CE0102C080E0F2
:101D300090E0DF91CF911F910F91FF90EF90DF9096
:101D4000CF90BF90AF909F908F907F906F900895AD
:101D500081E090E0F89410C0FB01DC0102C001902A
:101D60000D9241505040D8F70895FB01DC010190DD
:101D70000D920020E1F7089511E0C8E0D1E000E005
:101D800005C0802FFE01C7DD2196011DC930D10796
:0A1D900080E00807B1F7F894FFCFD8
:101D9A000000E002800000000000A60120043E01CD
:101DAA00F2016F014D016101270029002B002D006E
:0C1DBA002500230021001F000D0A00007E
:020000023000CC
:10E000000D9489F10D94B2F10D94B2F10D94B2F129
:10E010000D94B2F10D94B2F10D94B2F10D94B2F1F0
:10E020000D94B2F10D94B2F10D94B2F10D94B2F1E0
:10E030000D94B2F10D94B2F10D94B2F10D94B2F1D0
:10E040000D94B2F10D94B2F10D94B2F10D94B2F1C0
:10E050000D94B2F10D94B2F10D94B2F10D94B2F1B0
:10E060000D94B2F10D94B2F10D94B2F10D94B2F1A0
:10E070000D94B2F10D94B2F10D94B2F10D94B2F190
:10E080000D94B2F10D94B2F10D94B2F10D94B2F180
:10E090000D94B2F10D94B2F10D94B2F10D94B2F170
:10E0A0000D94B2F10D94B2F10D94B2F10D94B2F160
:10E0B0000D94B2F10D94B2F10D94B2F10D94B2F150
:10E0C0000D94B2F10D94B2F10D94B2F10D94B2F140
:10E0D0000D94B2F10D94B2F10D94B2F10D94B2F130
:10E0E0000D94B2F141546D656761323536300041AF
:10E0F000726475696E6F206578706C6F72657220DE
:10E1000073746B3530305632206279204D4C530099
:10E11000426F6F746C6F616465723E004875683F52
:10E1200000436F6D70696C6564206F6E203D200048
:10E130004350552054797065202020203D20005FF9
:10E140005F4156525F415243485F5F3D2000415658
:10E1500052204C696243205665723D20004743437C
:10E160002056657273696F6E203D20004350552024
:10E1700049442020202020203D20004C6F7720663D
:10E18000757365202020203D20004869676820665F
:10E190007573652020203D200045787420667573D6
:10E1A00065202020203D20004C6F636B2066757336
:10E1B000652020203D20004D617220203720323024
:10E1C000313300312E362E3800342E332E350056A2
:10E1D00023202020414444522020206F7020636F70
:10E1E00064652020202020696E73747275637469E1
:10E1F0006F6E2061646472202020496E74657272B3
:10E20000757074006E6F20766563746F7200726A49
:10E210006D702020006A6D70200057686174207056
:10E220006F72743A00506F7274206E6F7420737541
:10E2300070706F72746564004D7573742062652030
:10E2400061206C6574746572002000577269747483
:10E25000696E672045450052656164696E672045B7
:10E26000450045452065727220636E743D00504F35
:10E27000525400303D5A65726F2061646472003FF1
:10E280003D43505520737461747300403D454550C3
:10E29000524F4D207465737400423D426C696E6B41
:10E2A000204C454400453D44756D70204545505215
:10E2B0004F4D00463D44756D7020464C415348001B
:10E2C000483D48656C70004C3D4C69737420492F83
:10E2D0004F20506F72747300513D51756974005234
:10E2E0003D44756D702052414D00563D73686F7707
:10E2F00020696E7465727275707420566563746FF0
:10E30000727300593D506F727420626C696E6B00BD
:10E310002A0011241FBECFEFD1E2DEBFCDBF01E046
:10E320000CBF12E0A0E0B2E0EEE1FDEF03E00BBFB6
:10E3300002C007900D92A030B107D9F712E0A0E01B
:10E34000B2E001C01D92AE30B107E1F70F9460F367
:10E350000D948DFE01E20EBF0FEF0DBF11241FBE05
:10E360000D9460F30D9400F020E030E040ED57E0B4
:10E3700005C0FA013197F1F72F5F3F4F2817390792
:10E38000C0F308959C01260F311DC901A0E0B0E043
:10E390002F5F3F4FABBFFC018791882361F08093D3
:10E3A000C6008091C00086FFFCCF8091C0008064D1
:10E3B0008093C000EACF08958DE08093C6008091DD
:10E3C000C00086FFFCCF8091C00080648093C000B5
:10E3D0008AE08093C6008091C00086FFFCCF8091C8
:10E3E000C00080648093C00008950F94C2F10F9420
:10E3F000DCF10895FC019081992359F09093C600B7
:10E400008091C00086FFFCCF8091C0008064809323
:10E41000C0003196992379F70895282F982F929567
:10E420009F70892F805D8A3308F0895F8093C600D2
:10E430008091C00086FFFCCF8091C00080648093F3
:10E44000C000822F8F70982F905D9A3308F0995FEB
:10E450009093C6008091C00086FFFCCF8091C000E1
:10E4600080648093C00008959C01FB01853691056E
:10E470001CF46330710594F0C90164E670E00F94F8
:10E480002EFE605D7F4F6093C6008091C00086FFC6
:10E49000FCCF8091C00080648093C0002B30310598
:10E4A00014F43297B4F0C90164E670E00F942EFEC4
:10E4B0006AE070E00F942EFE605D7F4F6093C600AF
:10E4C0008091C00086FFFCCF8091C0008064809363
:10E4D000C000C9016AE070E00F942EFEC0968093E0
:10E4E000C6008091C00086FFFCCF8091C000806490
:10E4F0008093C00008951F93182F8EE692EE60E07F
:10E500000F94C2F11093C6008091C00086FFFCCF2B
:10E510008091C00080648093C0000F94DCF11F9153
:10E5200008952F923F924F925F926F927F928F92B7
:10E530009F92AF92BF92CF92DF92EF92FF920F9392
:10E540001F93DF93CF93CDB7DEB762970FB6F894E2
:10E55000DEBF0FBECDBF382E622ECA01DB015C01CB
:10E560006D01772420E2222E2E010894411C511CBB
:10E570008BC081E0A81680E0B80681E0C80680E084
:10E58000D80628F0C601AA27BB270F940DF2BB2797
:10E59000AD2D9C2D8B2D0F940DF28A2D0F940DF225
:10E5A0002092C6008091C00086FFFCCF8091C00001
:10E5B00080648093C0009DE29093C6008091C0006B
:10E5C00086FFFCCF8091C00080648093C0002092C1
:10E5D000C6008091C00086FFFCCF8091C00080649F
:10E5E0008093C00019828601750188249924A1E0D6
:10E5F0003A1651F03A1620F0B2E03B1661F409C029
:10E600000BBFF701779007C0C7010F9477FE782EF4
:10E6100002C0F7017080872D0F940DF22092C60082
:10E620008091C00086FFFCCF8091C0008064809301
:10E63000C000872D8052F401EF70F0708F3520F408
:10E64000E40DF51D708204C0E40DF51D8EE280839B
:10E650000894E11CF11C011D111D0894811C911CE2
:10E6600090E18916910409F0C2CF80E190E0A0E02A
:10E67000B0E0A80EB91ECA1EDB1E198AC2010F9493
:10E68000FAF10F94DCF16A94662009F072CF629679
:10E690000FB6F894DEBF0FBECDBFCF91DF911F91B3
:10E6A0000F91FF90EF90DF90CF90BF90AF909F9031
:10E6B0008F907F906F905F904F903F902F90089534
:10E6C0002F923F924F925F926F927F928F929F9282
:10E6D000AF92BF92CF92DF92EF92FF920F931F9370
:10E6E000DF93CF93CDB7DEB7CD53D1400FB6F894BB
:10E6F000DEBF0FBECDBF01E20EBF0FEF0DBF94B75F
:10E70000F894A89514BE80916000886180936000A1
:10E7100010926000789493FF05C0E0910002F091A0
:10E7200001021995279A2F9A8091C00082608093E8
:10E73000C00080E18093C40088E18093C1000000A4
:10E74000EE24FF24870144E0A42EB12CCC24DD2448
:10E7500024C0C5010197F1F70894E11CF11C011DCB
:10E76000111D21E2E2162EE4F20620E0020720E06D
:10E77000120718F031E0C32ED12CC801B70127ECE5
:10E780003BE140E050E00F9441FE611571058105C9
:10E79000910519F485B1805885B98091C00087FD35
:10E7A00003C0C114D104A9F2A6014F5F5F4FC25E3E
:10E7B000DE4F59834883CE51D140C25EDE4F8881FF
:10E7C0009981CE51D140019711F00D9410FEC05D9A
:10E7D000DE4F19821882C053D14060E0C15DDE4F28
:10E7E0001882CF52D14088249924C35DDE4F19820C
:10E7F0001882CD52D140C05EDE4F188219821A8233
:10E800001B82C052D140CE5CDE4F188219821A8220
:10E810001B82C253D140EE24FF2487010BBFF701B6
:10E8200007911691C45CDE4F19830883CC53D14005
:10E830000D940BFEC25EDE4F28813981CE51D1404E
:10E840002130310509F52091C600C25EDE4F1982E4
:10E850001882CE51D14022C02F5F3F4F4F4F5F4FA4
:10E86000213082E138078AE7480780E0580780F0C6
:10E87000C45CDE4FE881F981CC53D140EF5FFF4F9C
:10E8800019F0EE27FF27099420E030E040E050E047
:10E890008091C00087FFE0CF2091C600C35DDE4FAE
:10E8A00048815981CD52D1404F5F5F4FC35DDE4FEC
:10E8B00059834883CD52D140213209F063C64A3092
:10E8C000510508F05FC60894811C911C53E0851621
:10E8D000910409F059C600E010E018C081E280936D
:10E8E000C6008091C00086FFFCCF8091C00080648C
:10E8F0008093C0002F5F3F4F2931310579F70F9486
:10E90000DCF10F5F1F4F0530110519F020E030E0FA
:10E91000E5CF10920A0210920B0210920C02109294
:10E920000D02109206021092070210920802109235
:10E930000902109202021092030210920402109235
:10E9400005028FEE90EE60E00F94F5F180E191EE1C
:10E9500060E00F94C2F18091C00087FFFCCF9091DE
:10E96000C600903608F09F759032B8F09093C600BC
:10E970008091C00086FFFCCF8091C00080648093AE
:10E98000C000A0E2A093C6008091C00086FFFCCF2B
:10E990008091C00080648093C000983409F4D7C18E
:10E9A0009934B8F4923409F459C1933458F490333B
:10E9B00019F1903308F4E3C59F33A1F1903409F0C5
:10E9C000DEC5BDC0953409F470C1963409F0D7C5D1
:10E9D00098C1923509F42BC2933538F49C3409F46C
:10E9E000F5C1913509F0CBC518C2963509F445C279
:10E9F000993509F0C4C567C483E792EE62E00F94CD
:10EA0000F5F110920602109207021092080210927D
:10EA1000090210920A0210920B0210920C0210923C
:10EA20000D0213C18FE792EE62E00F94F5F18FEEC5
:10EA300090EE60E00F94F5F181E291EE60E00F94CA
:10EA4000C2F187EB91EE60E00F94F5F180E391EE77
:10EA500060E00F94C2F184EE90EE60E00F94F5F167
:10EA60008FE391EE60E00F94C2F186E090E061E008
:10EA700070E00F9434F20F94DCF18DE591EE60E0DC
:10EA80000F94C2F189EC91EE60E00F94F5F18EE401
:10EA900091EE60E00F94C2F183EC91EE60E00F9490
:10EAA000F5F18CE691EE60E00F94C2F18EE10F94E7
:10EAB0000DF288E90F940DF281E00F940DF20F949E
:10EAC000DCF18BE791EE60E00F94C2F119E0E0E039
:10EAD000F0E010935700E4918E2F0F940DF20F94F5
:10EAE000DCF18AE891EE60E00F94C2F1E3E0F0E03F
:10EAF00010935700E4918E2F0F940DF20F94DCF1D8
:10EB000089E991EE60E00F94C2F1E2E0F0E0109349
:10EB10005700E4918E2F0F940DF20F94DCF188EAE8
:10EB200091EE60E00F94C2F1E1E0F0E01093570045
:10EB30001491812F0F940DF20F94DCF107CF8BE825
:10EB400092EE62E00F94F5F18BE492EE60E00F94A8
:10EB5000F5F10F94DCF100E010E019C0C8016F2D51
:10EB60000F947FFEFF2031F489E492EE60E00F9471
:10EB7000C2F10BC0F092C6008091C00086FFFCCFAE
:10EB80008091C00080648093C0000F5F1F4FC80158
:10EB900081519F41A0E0B0E0ABBFFC01F790BAE229
:10EBA000FB1621F0E2E000301E07C1F60F94DCF105
:10EBB0000F94DCF187E592EE60E00F94F5F10F948D
:10EBC000DCF1CC24DD2400E010E01EC0C8010F946D
:10EBD00077FEF82E882331F489E492EE60E00F94FA
:10EBE000C2F10BC08093C6008091C00086FFFCCFAD
:10EBF0008091C00080648093C000FE1419F00894D6
:10EC0000C11CD11C0F5F1F4FC80181519F41A0E063
:10EC1000B0E0ABBFFC01E790FAE2EF1621F022E092
:10EC20000030120799F60F94DCF10F94DCF182E6C4
:10EC300092EE60E00F94C2F1C60161E070E00F94C3
:10EC400034F20F94DCF10F94DCF110920202109276
:10EC50000302109204021092050278CE89E992EE26
:10EC600062E00F94F5F1279A2F9A16C02F9880E052
:10EC700090E0E0EDF7E03197F1F7019684369105E9
:10EC8000C1F72F9A80E090E0E0EDF7E03197F1F7DF
:10EC9000019684369105C1F78091C00087FFE6CFC9
:10ECA0008091C00087FFFCCF64C485EA92EE62E0E9
:10ECB0000F94F5F140910202509103026091040219
:10ECC0007091050281E020E10F9491F2809102029F
:10ECD00090910302A0910402B091050280509F4FD1
:10ECE000AF4FBF4F8093020290930302A0930402A0
:10ECF000B093050280509041A040B04008F426CE69
:10ED0000A4CF83EB92EE62E00F94F5F140910602FE
:10ED100050910702609108027091090280E020E1A1
:10ED20000F9491F28091060290910702A09108023F
:10ED3000B091090280509F4FAF4FBF4F80930602A2
:10ED400090930702A0930802B0930902FFCD80ECD4
:10ED500092EE62E00F94F5F183E792EE60E00F949B
:10ED6000F5F18FE792EE60E00F94F5F18BE892EE0B
:10ED700060E00F94F5F189E992EE60E00F94F5F10F
:10ED800085EA92EE60E00F94F5F183EB92EE60E09D
:10ED90000F94F5F180EC92EE60E00F94F5F187ECC2
:10EDA00092EE60E00F94F5F188ED92EE60E00F9442
:10EDB000F5F18FED92EE60E00F94F5F18AEE92EEB0
:10EDC00060E00F94F5F183E093EEBDCD87EC92EE19
:10EDD00062E00F94F5F181E40F947BF282E40F94EA
:10EDE0007BF283E40F947BF284E40F947BF285E45E
:10EDF0000F947BF286E40F947BF287E40F947BF20E
:10EE000088E40F947BF28AE40F947BF28BE40F94F6
:10EE10007BF28CE40F947BF299CD88ED92EE62E068
:10EE20000F94F5F1772473948824992409C48FED05
:10EE300092EE62E00F94F5F140910A0250910B02BC
:10EE400060910C0270910D0282E020E10F9491F22A
:10EE500080910A0290910B02A0910C02B0910D02D8
:10EE600080509F4FAF4FBF4F80930A0290930B0289
:10EE7000A0930C02B0930D0269CD8AEE92EE62E08F
:10EE80000F94F5F184EE90EE60E00F94F5F18FECC5
:10EE900091EE60E00F94F5F1662477244301CC5D98
:10EEA000DE4F19821882C452D140D401C301B695F5
:10EEB000A79597958795CA5DDE4F88839983AA8326
:10EEC000BB83C652D140CC5DDE4FA881B981C4520C
:10EED000D1401196CC5DDE4FB983A883C452D14096
:10EEE000CD0162E070E00F9434F2B0E2B093C6005E
:10EEF0008091C00086FFFCCF8091C0008064809329
:10EF0000C000EDE2E093C6008091C00086FFFCCF18
:10EF10008091C00080648093C000F0E2F093C6004E
:10EF20008091C00086FFFCCF8091C00080648093F8
:10EF3000C000CA5DDE4FE880F9800A811B81C6529D
:10EF4000D140BB27A12F902F8F2D0F940DF2CA5DBA
:10EF5000DE4F8881C652D1400F940DF2B0E2FB2EF5
:10EF6000F092C6008091C00086FFFCCF8091C00067
:10EF700080648093C0000DE30093C6008091C000C0
:10EF800086FFFCCF8091C00080648093C00010E2B7
:10EF90001093C6008091C00086FFFCCF8091C00016
:10EFA00080648093C0008BBEF3012791C65DDE4F65
:10EFB0002883CA52D140A22EBB24CC24DD2408943D
:10EFC000611C711C811C911C8BBEF3018791282E42
:10EFD0003324442455240894611C711C811C911C09
:10EFE0008BBEF3013791C55DDE4F3883CB52D140E4
:10EFF0000894611C711C811C911C8BBEF30147910C
:10F00000C45DDE4F4883CC52D140ADEFEA2EAFEF66
:10F01000FA2EAFEF0A2FAFEF1A2F6E0C7F1C801E57
:10F02000911E142D032DF22CEE24EA0CFB1C0C1D5A
:10F030001D1D0F940DF220E22093C6008091C000A8
:10F0400086FFFCCF8091C00080648093C000C65DC5
:10F05000DE4F8881CA52D1400F940DF230E23093D6
:10F06000C6008091C00086FFFCCF8091C000806404
:10F070008093C000C45DDE4F8881CC52D1400F9494
:10F080000DF240E24093C6008091C00086FFFCCFA5
:10F090008091C00080648093C000C55DDE4F888190
:10F0A000CB52D1400F940DF250E25093C6008091A4
:10F0B000C00086FFFCCF8091C00080648093C000B8
:10F0C0008FEFE8168FEFF80680E0080780E018075A
:10F0D00031F484E092EE60E00F94C2F1DFC0D80119
:10F0E000C7018070907CA070B0708050904CA040A0
:10F0F000B040D1F52FEF3FE340E050E0E222F322B1
:10F1000004231523CA5DDE4FA880B980CA80DB8046
:10F11000C652D140AE0CBF1CC01ED11EAA0CBB1CD7
:10F12000CC1CDD1C8EE092EE60E00F94C2F1BB2798
:10F13000A12F902F8F2D0F940DF28E2D0F940DF285
:10F1400030E23093C6008091C00086FFFCCF8091F2
:10F15000C00080648093C0004EE34093C60080915D
:10F16000C00086FFFCCF87C08EE09EEFA0E0B0E03D
:10F17000E822F9220A231B239CE0E91694E9F90608
:10F1800090E0090790E0190709F088C0C45DDE4FE0
:10F19000A881CC52D140EA2EFF2400E010E0102FCD
:10F1A0000F2DFE2CEE24C55DDE4FB881CB52D14031
:10F1B000EB0EF11C011D111DD601C501817090706F
:10F1C000A070B070DC0199278827E80EF91E0A1F8D
:10F1D0001B1F20EF30E040E050E0A222B322C42207
:10F1E000D52241E1AA0CBB1CCC1CDD1C4A95D1F7F1
:10F1F000EA0CFB1C0C1D1D1D81E090E0A0E0B0E0BE
:10F20000282239224A225B2235E1220C331C441C7D
:10F21000551C3A95D1F7E20CF31C041D151D57013E
:10F220006801AA0CBB1CCC1CDD1C85E192EE60E0E1
:10F230000F94C2F1C801AA27BB270F940DF2BB2778
:10F24000A12F902F8F2D0F940DF28E2D0F940DF274
:10F2500090E29093C6008091C00086FFFCCF809121
:10F26000C00080648093C000AEE3A093C60080918C
:10F27000C00086FFFCCF8091C00080648093C000F6
:10F28000C601AA27BB270F940DF2BB27AD2D9C2DDD
:10F290008B2D0F940DF28A2D0F940DF20F94DCF14B
:10F2A000CC5DDE4FE881F981C452D140F99709F471
:10F2B0004DCBF4E0EF2EF12C012D112D6E0C7F1CA7
:10F2C000801E911EF2CD83E093EE62E00F94F5F183
:10F2D0008AE192EE60E00F94C2F18091C00087FF56
:10F2E000FCCF1091C6001F751093C6008091C0001E
:10F2F00086FFFCCF8091C00080648093C0000F9493
:10F30000DCF1812F81548A3108F036C1163409F4BA
:10F3100095C0173490F4133409F44EC0143430F40B
:10F320001134F1F0123409F01DC130C0143409F465
:10F3300059C0153409F016C16BC01A3409F4C4C0A1
:10F340001B3438F4173409F48FC0183409F00AC19B
:10F35000A1C01B3409F4D2C01C3409F003C1E8C0B9
:10F360008FEF81B90DC082B1809582B980E090E0C5
:10F37000E0EDF7E03197F1F70196883C9105C1F790
:10F380008091C00087FFEFCF12B8EFC08FEF84B934
:10F390000DC085B1809585B980E090E0E0EDF7E0A3
:10F3A0003197F1F70196883C9105C1F78091C00033
:10F3B00087FFEFCF15B8D9C08FEF87B90DC088B1DF
:10F3C000809588B980E090E0E0EDF7E03197F1F7C3
:10F3D0000196883C9105C1F78091C00087FFEFCF6F
:10F3E00018B8C3C08FEF8AB90DC08BB180958BB9A7
:10F3F00080E090E0E0EDF7E03197F1F70196883C8E
:10F400009105C1F78091C00087FFEFCF1BB8ADC059
:10F410008FEF8DB90DC08EB180958EB980E090E0F0
:10F42000E0EDF7E03197F1F70196883C9105C1F7DF
:10F430008091C00087FFEFCF1EB897C08FEF80BBD1
:10F440000DC081B3809581BB80E090E0E0EDF7E0F6
:10F450003197F1F70196883C9105C1F78091C00082
:10F4600087FFEFCF11BA81C08FEF83BB0DC084B38C
:10F47000809584BB80E090E0E0EDF7E03197F1F714
:10F480000196883C9105C1F78091C00087FFEFCFBE
:10F4900014BA6BC08FEF809301010FC080910201FD
:10F4A00080958093020180E090E0E0EDF7E03197F5
:10F4B000F1F70196883C9105C1F78091C00087FF64
:10F4C000EDCF1092020151C08FEF809304010FC065
:10F4D0008091050180958093050180E090E0E0ED4A
:10F4E000F7E03197F1F70196883C9105C1F78091DB
:10F4F000C00087FFEDCF1092050137C08FEF8093DA
:10F5000007010FC08091080180958093080180E079
:10F5100090E0E0EDF7E03197F1F70196883C910536
:10F52000C1F78091C00087FFEDCF109208011DC088
:10F530008FEF80930A010FC080910B01809580931B
:10F540000B0180E090E0E0EDF7E03197F1F70196F4
:10F55000883C9105C1F78091C00087FFEDCF1092E4
:10F560000B0103C085E292EEEEC98091C00087FFD7
:10F57000FCCF8091C600EAC988E392EEE4C98CE131
:10F5800091EEE1C988249924933011F1943028F444
:10F59000913089F09230B8F408C0953061F195301F
:10F5A000F0F0963009F048C043C02B3109F042C951
:10F5B00091E06BE13FC96227C15DDE4F2883CF52E6
:10F5C000D14092E037C9B22FA0E0622793E032C960
:10F5D000822F90E0A82BB92B622794E02BC92E3004
:10F5E00009F039C3622795E0C05DDE4F19821882A9
:10F5F000C053D1401FC9E1E0F0E0EC0FFD1FC05D3A
:10F60000DE4F08811981C053D140E00FF11F2083E4
:10F610000F5F1F4FC05DDE4F19830883C053D14079
:10F6200062270A171B0709F005C9D80196E002C92D
:10F63000261709F010C303C0973009F0FBC87724E0
:10F640009981933109F412C19431C8F4963009F4C8
:10F65000D8C0973050F4923009F406C1933009F4C1
:10F660006DC0913009F059C253C0913109F477C08F
:10F67000923108F0BBC0903109F04FC2F5C098310B
:10F6800009F487C0993150F4953109F4EFC09531F0
:10F6900008F4C6C1963109F040C2C2C19A3109F4DA
:10F6A0006CC09A3108F491C09B3109F45BC09D3164
:10F6B00009F033C29D81903359F48F81882311F46E
:10F6C0009EE11CC0813011F091E018C098E916C08D
:10F6D000892F807591F0903539F4E0E0F0E089E011
:10F6E0008093570094910AC0983539F4E3E0F0E034
:10F6F00089E080935700949101C090E01A821B82A8
:10F700008D818C831D829E831F8227E030E009C299
:10F710001A8288E08B8381E48C8386E58D8382E581
:10F720008E8389E48F8383E5888780E589878FE5E9
:10F730008A8782E38B872BE030E0F3C18A818139AD
:10F7400041F0823941F0803911F48FE005C080E04A
:10F7500003C082E001C08AE01A828B8344C0772410
:10F76000739482C08D81882311F48EE12CC0813086
:10F7700011F081E028C088E926C01A82E1E0F0E0BB
:10F7800089E08093570084918B831C8224E030E0D1
:10F79000C8C18B81803589F48C81883039F4E2E0EE
:10F7A000F0E089E08093570084910DC0E0E0F0E044
:10F7B00089E080935700849106C0E3E0F0E089E09F
:10F7C0008093570084911A82DFCF8D81836C99E0FA
:10F7D000E1E0F0E0082E90935700E89507B600FCB2
:10F7E000FDCF1A821B8223E030E09BC180EC8A832C
:10F7F000CE5CDE4F188219821A821B82C253D1401E
:10F800008EC18A8190E0A0E0B0E0582F44273327D2
:10F8100022278B8190E0A0E0B0E0DC0199278827C7
:10F82000282B392B4A2B5B2B8D8190E0A0E0B0E098
:10F83000282B392B4A2B5B2B8C8190E0A0E0B0E089
:10F84000BA2FA92F982F8827282B392B4A2B5B2BCF
:10F85000220F331F441F551FC05EDE4F288339839C
:10F860004A835B83C052D1401A8259C13A81C95C34
:10F87000DE4F3883C753D140CA5CDE4F1882C6536F
:10F88000D1408B81C82EDD24CA5CDE4F488159816E
:10F89000C653D140C42AD52A933109F082C0CE5C28
:10F8A000DE4F88819981AA81BB81C253D1408050AB
:10F8B000904CA340B04030F583E0CE5CDE4FE88052
:10F8C000F9800A811B81C253D140F70100935B008C
:10F8D00080935700E89507B600FCFDCFCE5CDE4F65
:10F8E000088119812A813B81C253D14000501F4FAA
:10F8F0002F4F3F4FCE5CDE4F088319832A833B8313
:10F90000C253D140C05EDE4F488159816A817B81FC
:10F91000C052D140DE011B9631E08C9111962C91A2
:10F9200011971296C75CDE4F2883C953D140C85C3B
:10F93000DE4F1882C853D14090E0C85CDE4FE881AA
:10F94000F981C853D1408E2B9F2B0C01FA01609393
:10F950005B0030935700E89511244E5F5F4F6F4F67
:10F960007F4F0EEFE02E0FEFF02ECE0CDF1CC114F8
:10F97000D10499F685E0C05EDE4F088119812A81A5
:10F980003B81C052D140F80120935B008093570027
:10F99000E89507B600FCFDCF81E180935700E8951C
:10F9A00035C0C05EDE4F88819981AA81BB81C0527B
:10F9B000D140B695A795979587957C018601ABE0D8
:10F9C000AA2EB12CAC0EBD1E0BC0D5016D915D01F0
:10F9D000C7010F947FFE0894E11CF11C01501040F8
:10F9E0000115110591F7A60160E070E0440F551F65
:10F9F000661F771FC05EDE4FE880F9800A811B8199
:10FA0000C052D1404E0D5F1D601F711F1A82C05E33
:10FA1000DE4F488359836A837B83C052D1407FC0C5
:10FA2000FA80C55CDE4FF882CB53D140C65CDE4F16
:10FA30001882CA53D1408B81C82EDD24C65CDE4FAC
:10FA400008811981CA53D140C02AD12A1A828981DA
:10FA5000BE016D5F7F4F843121F59601C05EDE4FA0
:10FA6000E880F9800A811B81C052D1400BBFF701A9
:10FA700087919691DB018C9311969C936E5F7F4FDB
:10FA8000D801C7010296A11DB11DC05EDE4F88835B
:10FA90009983AA83BB83C052D14022503040F1F6F3
:10FAA00036C0C05EDE4F288139814A815B81C052F9
:10FAB000D1400894C108D108760100E010E0089414
:10FAC000C11CD11C0894E11CF11C011D111DE20E8A
:10FAD000F31E041F151F21BDBB27A52F942F832FB5
:10FAE00082BD2F5F3F4F4F4F5F4FF89A80B5DB01CC
:10FAF0008D93BD012E153F054007510761F7C05E8C
:10FB0000DE4F288339834A835B83C052D1409601FC
:10FB10002D5F3F4FFB01108204C080EC8A8322E0FE
:10FB200030E08BE18093C6008091C00086FFFCCF5F
:10FB30008091C00080648093C000C15DDE4FF88179
:10FB4000CF52D140F093C6008091C00086FFFCCF19
:10FB50008091C00080648093C000432F3093C60022
:10FB60008091C00086FFFCCF8091C00080648093AC
:10FB7000C000922F2093C6008091C00086FFFCCF6A
:10FB80008091C00080648093C0008EE08093C600A6
:10FB90008091C00086FFFCCF8091C000806480937C
:10FBA000C00065E1C15DDE4FE880CF52D1406E25D7
:10FBB00069276427FE01319610C090819093C6009A
:10FBC0008091C00086FFFCCF31968091C000806498
:10FBD0008093C0006927215030402115310569F715
:10FBE0006093C6008091C00086FFFCCF8091C0006A
:10FBF00080648093C00085B1805885B9772081F4F6
:10FC0000C15DDE4F0881CF52D1400F5FC15DDE4F35
:10FC10000883CF52D14090E0A0E0B0E00D941AF4F8
:10FC200027982F9880E090E020ED37E0F901319798
:10FC3000F1F7019684369105C9F700008091C00064
:10FC40008D7F8093C00081E180935700E895EE2777
:10FC5000FF270994FFCF90E00D941AF497FB092E2B
:10FC600007260AD077FD04D02ED006D000201AF443
:10FC7000709561957F4F0895F6F7909581959F4F08
:10FC80000895A1E21A2EAA1BBB1BFD010DC0AA1FDD
:10FC9000BB1FEE1FFF1FA217B307E407F50720F0F5
:10FCA000A21BB30BE40BF50B661F771F881F991F70
:10FCB0001A9469F760957095809590959B01AC01B9
:10FCC000BD01CF010895AA1BBB1B51E107C0AA1FAC
:10FCD000BB1FA617B70710F0A61BB70B881F991FED
:10FCE0005A95A9F780959095BC01CD010895F99991
:10FCF000FECF92BD81BDF89A992780B50895262F31
:10FD0000F999FECF1FBA92BD81BD20BD0FB6F89400
:0EFD1000FA9AF99A0FBE01960895F894FFCF63
:040000033000E000E9
:00000001FF