:1000000007C1000035C1000033C1000031C100004C
:100010002FC100002DC100002BC1000029C100002C
:1000200027C1000025C1000023C1000021C100003C
:100030001FC100001DC100001BC1000019C100004C
:1000400017C1000015C1000013C1000011C100005C
:100050000FC100000DC100000BC100000BC5000066
:1000600007C1000010C40000E5C3000001C100008A
:10007000FFC00000FDC00000FBC00000F9C0000090
:10008000F7C00000F5C00000F3C00000F1C00000A0
:10009000EFC00000EDC00000EBC00000E9C00000B0
:1000A000E7C00000E5C00000E3C00000E1C00000C0
:1000B000DFC00000DDC00000DBC00000D9C00000D0
:1000C000D7C00000D5C00000D3C00000D1C00000E0
:1000D000CFC00000CDC00000CBC00000C9C00000F0
:1000E000C7C00000A704AA0499049D04A104E10468
:1000F000AE04B204B804BC04C004C604CA04CE04EE
:10010000E104D404D804DC04000022002500280007
:100110002B002E003100340002010000050108010F
:100120000B0100002100240027002A002D003000D0
:10013000330001010000040107010A01050505055E
:10014000070508080808020202020A0A080804044F
:10015000040401010101010101010303030303037D
:100160000303040707070C0C0C0C0C0C0C0C02020C
:10017000020206060606060606060B0B0B0B0B0B09
:100180000B0B010210202008081020401020408096
:10019000020102010804020101020408102040804B
:1001A00080402010080402018004020180402010D9
:1001B0000804020108040201010204081020408022
:1001C000010204081020408000000A0B02090C0DF7
:1001D0000E080703040100000000000000000000FA
:1001E000000000000000000000000000000000000F
:1001F00000000000121110000000000000000000CC
:100200000000000000000000000000000000930A51
:1002100011241FBECFEFD1E2DEBFCDBF00E00CBF87
:1002200023E0AAE4B2E001C01D92AA33B207E1F7CD
:1002300012E0A0E0B2E0E4E0F6E100E00BBF02C0B3
:1002400007900D92AA34B107D9F711E0C8E0D1E0C8
:1002500000E006C021970109802FFE010E94F40AE8
:10026000C730D10780E00807A9F74ED40C94000BE3
:10027000C7CECF92DF92EF92FF920F931F93CF934F
:10028000DF936C017A018B01C0E0D0E0CE15DF0571
:1002900081F0D8016D918D01D601ED91FC91019015
:1002A000F081E02DC6011995892B11F02196EECF32
:1002B0007E01C701DF91CF911F910F91FF90EF90C9
:1002C000DF90CF9008950E94FC0A90E0FC01EE5769
:1002D000FE4F2491FC01E45CFE4F8491882399F049
:1002E00090E0880F991FFC01EE5DFE4FA591B4913F
:1002F000FC01E85FFE4F859194918FB7F894EC91E3
:10030000E22BEC938FBF0895009761F0FC01019000
:100310000020E9F73197AF01481B590BBC018EE46F
:1003200092E0A7CF80E090E008958F929F92AF92E5
:10033000BF920F931F93CF93DF93CDB7DEB7A197F3
:100340000FB6F894DEBF0FBECDBF19A2423008F43D
:100350004AE08E010F5D1F4F842E912CA12CB12CF1
:10036000A50194010E94D20AE62FB901CA010150E9
:100370001109EA3014F4E05D01C0E95CD801EC93A6
:10038000232B242B252B61F7C801BEDFA1960FB6C6
:10039000F894DEBF0FBECDBFDF91CF911F910F91BB
:1003A000BF90AF909F908F900895CF93DF93C1E45B
:1003B000D0E060E08FE19DD260E081E29AD260E01F
:1003C00083E297D260E085E294D260E08DE291D240
:1003D00060E08BE28ED260E089E28BD260E087E25F
:1003E00088D265E070E080E090E000D361E08FE1CA
:1003F00080D260E081E27DD260E083E27AD261E087
:1004000085E277D261E08DE274D260E08BE271D256
:1004100060E089E26ED261E087E26BD265E070E075
:1004200080E090E0E3D261E08FE163D260E081E2BE
:1004300060D260E083E25DD260E085E25AD261E0A2
:100440008DE257D260E08BE254D260E089E251D273
:1004500060E087E24ED265E070E080E090E0C6D2D6
:1004600061E08FE146D261E081E243D260E083E265
:1004700040D260E085E23DD261E08DE23AD261E0B7
:100480008BE237D260E089E234D260E087E231D299
:1004900065E070E080E090E0A9D260E08FE129D2D1
:1004A00061E081E226D260E083E223D260E085E26F
:1004B00020D260E08DE21DD261E08BE21AD260E0D2
:1004C00089E217D260E087E214D265E070E080E054
:1004D00090E08CD260E08FE10CD261E081E209D241
:1004E00061E083E206D260E085E203D260E08DE263
:1004F00000D261E08BE2FDD161E089E2FAD160E0F7
:1005000087E2F7D165E070E080E090E06FD260E0D4
:100510008FE1EFD160E081E2ECD161E083E2E9D1EB
:1005200060E085E2E6D160E08DE2E3D160E08BE25D
:10053000E0D161E089E2DDD160E087E2DAD165E017
:1005400070E080E090E052D260E08FE1D2D160E0D4
:1005500081E2CFD161E083E2CCD161E085E2C9D113
:1005600060E08DE2C6D160E08BE2C3D161E089E258
:10057000C0D161E087E2BDD165E070E080E090E04D
:1005800035D260E08FE1B5D160E081E2B2D160E0C8
:1005900083E2AFD161E085E2ACD160E08DE2A9D128
:1005A00060E08BE2A6D160E089E2A3D161E087E25E
:1005B000A0D165E070E080E090E018D2219709F0CA
:1005C000F8CEDF91CF910895089580E090E00895EE
:1005D000FC01538D448D252F30E0842F90E0821B49
:1005E000930B541710F0CF96089501970895FC01CE
:1005F000918D828D981761F0828DDF01A80FB11D5A
:100600005D968C91928D9F5F9F73928F90E008957D
:100610008FEF9FEF0895FC01918D828D981731F037
:10062000828DE80FF11D858D90E008958FEF9FEF8B
:100630000895FC01918D228D892F90E0805C9F4F61
:10064000821B91098F73992708958EE492E0F1DF60
:1006500021E0892B09F420E0822F0895FC01848D8C
:10066000DF01A80FB11DA35ABF4F2C91848D90E0DC
:1006700001968F739927848FA689B7892C93A089B7
:10068000B1898C91837080648C93938D848D981341
:1006900006C00288F389E02D80818F7D80830895D4
:1006A000EF92FF920F931F93CF93DF93EC0181E0C2
:1006B000888F9B8D8C8D981305C0E889F98980817E
:1006C00085FD25C0F62E0B8D10E00F5F1F4F0F73B9
:1006D0001127E02E8C8DE8120BC00FB607FCFACF65
:1006E000E889F989808185FFF5CFCE01B7DFF2CFA8
:1006F0008B8DFE01E80FF11DE35AFF4FF0829FB78B
:10070000F8940B8FEA89FB89808180620AC09FB7C9
:10071000F894EE89FF896083E889F9898081837084
:10072000806480839FBF81E090E0DF91CF911F9133
:100730000F91FF90EF900895CF93DF93EC01888D98
:100740008823C1F0EA89FB89808185FD05C0A889DD
:10075000B9898C9186FD0EC00FB607FCF5CF80815C
:1007600085FFF2CFA889B9898C9185FFEDCFCE01A5
:1007700075DFE8CFDF91CF91089580E090E0892B7D
:1007800019F063DF811125C080E090E0892B41F0F2
:1007900080E090E0892B21F00E94000081111CC0B4
:1007A00080E090E0892B41F080E090E0892B21F0FF
:1007B0000E940000811113C080E090E0892BA1F01D
:1007C00080E090E0892B81F00E94000081110AC036
:1007D00008950E940000D8CF0E940000E1CF0E943F
:1007E0000000EACF0C94000008953FB7F894809180
:1007F000360390913703A0913803B091390326B5A1
:10080000A89B05C02F3F19F00196A11DB11D3FBF48
:10081000BA2FA92F982F8827820F911DA11DB11DD6
:10082000BC01CD0142E0660F771F881F991F4A95D2
:10083000D1F708951F920F920FB60F9211240BB6A5
:100840000F922F933F934F935F936F937F938F9369
:100850009F93AF93BF93EF93FF938EE492E0FEDEFE
:10086000FF91EF91BF91AF919F918F917F916F9188
:100870005F914F913F912F910F900BBE0F900FBE44
:100880000F901F9018951F920F920FB60F92112480
:100890000BB60F922F938F939F93EF93FF93E0915B
:1008A0005E02F0915F028081E0916402F091650246
:1008B00082FD12C09081809167028F5F8F732091BB
:1008C0006802821751F0E0916702F0E0E25BFD4FB1
:1008D000958F8093670201C08081FF91EF919F9176
:1008E0008F912F910F900BBE0F900FBE0F901F9006
:1008F0001895362F90E0FC01E853FE4F4491FC011F
:10090000EE57FE4F2491FC01E45CFE4F9491992335
:1009100009F46BC0442309F454C050E0FA01319744
:10092000E231F10508F04DC08827EE58FF4F8F4F98
:100930005BC6809180008F7707C0809180008F7D9B
:1009400003C080918000877F809380003AC084B587
:100950008F7702C084B58F7D84BD33C08091B00095
:100960008F7703C08091B0008F7D8093B00029C045
:10097000809190008F7707C0809190008F7D03C099
:1009800080919000877F809390001BC08091A00091
:100990008F7707C08091A0008F7D03C08091A00059
:1009A000877F8093A0000DC0809120018F7707C0C2
:1009B000809120018F7D03C080912001877F8093EB
:1009C0002001E92FF0E0EE0FFF1FE85FFE4FA59139
:1009D000B4919FB7F894311104C08C9120952823CD
:1009E00002C0EC912E2B2C939FBF08958F929F9263
:1009F000AF92BF92CF92DF92EF92FF926B017C0198
:100A0000F4DE4B015C01C114D104E104F104E9F00E
:100A1000ECDEDC01CB0188199909AA09BB09883EE3
:100A20009340A105B10578F321E0C21AD108E1088D
:100A3000F10888EE880E83E0981EA11CB11CC11439
:100A4000D104E104F10421F7DECFFF90EF90DF90B5
:100A5000CF90BF90AF909F908F9008952FB7F8944C
:100A60006091320370913303809134039091350388
:100A70002FBF08951F920F920FB60F9211242F933C
:100A80003F938F939F93AF93BF9380913203909145
:100A90003303A0913403B09135033091310323E047
:100AA000230F2D3720F40196A11DB11D05C026E8A6
:100AB000230F0296A11DB11D2093310380933203B1
:100AC00090933303A0933403B0933503809136039E
:100AD00090913703A0913803B09139030196A11D7D
:100AE000B11D8093360390933703A0933803B093DE
:100AF0003903BF91AF919F918F913F912F910F90AB
:100B00000FBE0F901F901895789484B5826084BDB5
:100B100084B5816084BD85B5826085BD85B5816001
:100B200085BD80916E00816080936E00109281007F
:100B3000809181008260809381008091810081603A
:100B400080938100809180008160809380008091FB
:100B5000B10084608093B1008091B0008160809387
:100B6000B00080919100826080939100809191000B
:100B700081608093910080919000816080939000CB
:100B80008091A10082608093A1008091A10081608A
:100B90008093A1008091A00081608093A00080914B
:100BA00021018260809321018091210181608093E5
:100BB00021018091200181608093200180917A0041
:100BC000846080937A0080917A00826080937A00BA
:100BD00080917A00816080937A0080917A008068A9
:100BE00080937A001092C10010922D0310922E0370
:100BF00010922F03109230031092ED021092EE0229
:100C00001092EF021092F00229DF6B017C014B0180
:100C10005C0128EB820E2BE0921EA11CB11C1EDF92
:100C20006C157D058E059F0528F086169706A8068B
:100C3000B906A8F760ED77E080E090E0D7DEE091BC
:100C40005E02F0915F0282E08083E0915A02F091AF
:100C50005B021082E0915C02F0915D0280E1808392
:100C600010926602E0916202F091630286E0808356
:100C7000E0916002F0916102808180618083E09167
:100C80006002F0916102808188608083E09160025F
:100C9000F0916102808180688083E0916002F09130
:100CA000610280818F7D8083D9DE6093ED02709335
:100CB000EE028093EF029093F00284E292E024DB54
:100CC000CDDE6B017C014B015C013AE0830E911C8F
:100CD000A11CB11CC3DE6C157D058E059F0528F097
:100CE00086169706A806B906A8F781E08093010347
:100CF0008FE1EBDA81E2E9DA83E2E7DA85E2E5DA4D
:100D00008DE2E3DA8BE2E1DA89E2DFDA87E2DDDA4B
:100D10008EE1DBDA80E2D9DA82E2D7DA84E2D5DA70
:100D20008CE2D3DA8AE2D1DA88E2CFDA86E2CDDA6F
:100D300084EF882E99249394A12CB12C8FDE672BFD
:100D4000682B692B39F48ADE6230710581059105C3
:100D500008F4CFC083DE00914A0210914B0220912B
:100D60004C0230914D02601771078207930740F4DF
:100D700060934A0270934B0280934C0290934D0211
:100D800000914A0210914B0220914C0230914D0289
:100D90006B017C01C01AD10AE20AF30A97018601AD
:100DA0000A3F11052105310508F4A3C060934A02EA
:100DB00070934B0280934C0290934D028092F90203
:100DC0009092FA02A092FB02B092FC021092FD02F5
:100DD0001092FE021092FF02109200038091F10225
:100DE0009091F202A091F302B091F4028093F50287
:100DF0009093F602A093F702B093F8022FDE60936F
:100E0000F1027093F2028093F3029093F40226DED3
:100E10006093ED027093EE028093EF029093F002E4
:100E20001DDE6B017C0186E392E06EDA4AE061E050
:100E300070E080E090E079DA8DE392E065DA4AE0F4
:100E4000C701B60172DA8FE392E05EDA8091F102B7
:100E50009091F202A091F302B091F402A7019601E1
:100E6000281B390B4A0B5B0BCA01B9014AE05DDA5A
:100E70008FE392E049DA8091F1029091F202A09121
:100E8000F302B091F4020091F5021091F602209164
:100E9000F7023091F802BC01CD01601B710B820B8F
:100EA000930B4AE042DA81E492E02EDAD7DD4AE0A1
:100EB0003CDA83E492E028DA83E392E025DACEDDBF
:100EC0006B017C012B013C0132E0430E511C611C83
:100ED000711CC4DD6C157D058E059F0508F01CC3D3
:100EE000BDDD6093F1027093F2028093F302909360
:100EF000F402C4E6D0E001E410E061E08EE1F9DC48
:100F000060E080E2F6DC60E082E2F3DC61E084E253
:100F1000F0DC61E08CE2EDDC60E08AE2EADC60E0DB
:100F200088E2E7DC61E086E2E4DC65E070E080E036
:100F300090E05CDD61E08EE1DCDC60E080E2D9DC49
:100F400060E082E2D6DC60E084E2D3DC61E08CE247
:100F5000D0DC60E08AE2CDDC60E088E2CADC60E000
:100F600086E2C7DC65E070E080E090E03FDD61E0B4
:100F70008EE1BFDC61E080E2BCDC60E082E2B9DCF3
:100F800060E084E2B6DC61E08CE2B3DC61E08AE23E
:100F9000B0DC60E088E2ADDC60E086E2AADC65E01F
:100FA00070E080E090E022DD60E08EE1A2DC61E0B4
:100FB00080E29FDC60E082E29CDC60E084E299DC1D
:100FC00060E08CE296DC61E08AE293DC60E088E23B
:100FD00090DC60E086E28DDC65E070E080E090E02F
:100FE00005DD60E08EE185DC61E080E282DC61E0CD
:100FF00082E27FDC60E084E27CDC60E08CE279DC31
:1010000061E08AE276DC61E088E273DC60E086E23F
:1010100070DC65E070E080E090E0E8DC60E08EE1AC
:1010200068DC60E080E265DC61E082E262DC60E076
:1010300084E25FDC60E08CE25CDC60E08AE259DC48
:1010400061E088E256DC60E086E253DC65E070E057
:1010500080E090E0CBDC60E08EE14BDC60E080E2A1
:1010600048DC61E082E245DC61E084E242DC60E091
:101070008CE23FDC60E08AE23CDC61E088E239DC63
:1010800061E086E236DC65E070E080E090E0AEDCB6
:1010900060E08EE12EDC60E080E22BDC60E082E24A
:1010A00028DC61E084E225DC60E08CE222DC60E0A8
:1010B0008AE21FDC60E088E21CDC61E086E219DC89
:1010C00065E070E080E090E091DC0150110909F0EA
:1010D00014CF01E410E060E08EE10BDC60E080E220
:1010E00008DC60E082E205DC61E084E202DC60E0D2
:1010F0008CE2FFDB60E08AE2FCDB60E088E2F9DBA7
:1011000061E086E2F6DB65E070E080E090E06EDCB6
:1011100060E08EE1EEDB60E080E2EBDB61E082E24A
:10112000E8DB61E084E2E5DB60E08CE2E2DB60E0EA
:101130008AE2DFDB61E088E2DCDB61E086E2D9DBCA
:1011400065E070E080E090E051DC60E08EE1D1DBB2
:1011500060E080E2CEDB61E082E2CBDB60E084E253
:10116000C8DB60E08CE2C5DB60E08AE2C2DB61E004
:1011700088E2BFDB60E086E2BCDB65E070E080E037
:1011800090E034DC60E08EE1B4DB61E080E2B1DB72
:1011900061E082E2AEDB60E084E2ABDB60E08CE247
:1011A000A8DB61E08AE2A5DB61E088E2A2DB60E027
:1011B00086E29FDB65E070E080E090E017DC60E0B5
:1011C0008EE197DB61E080E294DB60E082E291DB1C
:1011D00060E084E28EDB60E08CE28BDB61E08AE23F
:1011E00088DB60E088E285DB60E086E282DB65E048
:1011F00070E080E090E0FADB61E08EE17ADB61E0B4
:1012000080E277DB60E082E274DB60E084E271DB45
:1012100061E08CE26EDB61E08AE26BDB60E088E239
:1012200068DB60E086E265DB65E070E080E090E02E
:10123000DDDB61E08EE15DDB60E080E25ADB60E0F7
:1012400082E257DB60E084E254DB61E08CE251DB58
:1012500060E08AE24EDB60E088E24BDB60E086E241
:1012600048DB65E070E080E090E0C0DB61E08EE1AB
:1012700040DB60E080E23DDB60E082E23ADB61E09F
:1012800084E237DB61E08CE234DB60E08AE231DB70
:1012900060E088E22EDB61E086E22BDB65E070E057
:1012A00080E090E0A3DB60E08EE123DB60E080E2A1
:1012B00020DB60E082E21DDB60E084E21ADB60E0BC
:1012C0008CE217DB60E08AE214DB60E088E211DB8D
:1012D00060E086E20EDB65E070E080E090E086DBB7
:1012E0000150110909F0F7CE60D802E810E060E083
:1012F0008FE1FFDA60E081E2FCDA60E083E2F9DAB4
:1013000061E085E2F6DA60E08DE2F3DA60E08BE23C
:10131000F0DA60E089E2EDDA61E087E2EADA65E0DE
:1013200070E080E090E062DB60E08FE1E2DA60E0B4
:1013300081E2DFDA61E083E2DCDA61E085E2D9DADA
:1013400060E08DE2D6DA60E08BE2D3DA61E089E238
:10135000D0DA61E087E2CDDA65E070E080E090E02D
:1013600045DB60E08FE1C5DA60E081E2C2DA61E08E
:1013700083E2BFDA60E085E2BCDA60E08DE2B9DAF0
:1013800060E08BE2B6DA61E089E2B3DA60E087E23E
:10139000B0DA65E070E080E090E028DB60E08FE1AB
:1013A000A8DA61E081E2A5DA61E083E2A2DA60E036
:1013B00085E29FDA60E08DE29CDA61E08BE299DA07
:1013C00061E089E296DA60E087E293DA65E070E056
:1013D00080E090E00BDB60E08FE18BDA61E081E29E
:1013E00088DA60E083E285DA60E085E282DA60E054
:1013F0008DE27FDA61E08BE27CDA60E089E279DA23
:1014000060E087E276DA65E070E080E090E0EEDAB6
:1014100061E08FE16EDA61E081E26BDA60E083E245
:1014200068DA60E085E265DA61E08DE262DA61E067
:101430008BE25FDA60E089E25CDA60E087E259DA49
:1014400065E070E080E090E0D1DA61E08FE151DAB0
:1014500060E081E24EDA60E083E24BDA60E085E250
:1014600048DA61E08DE245DA60E08BE242DA60E082
:1014700089E23FDA60E087E23CDA65E070E080E034
:1014800090E0B4DA61E08FE134DA60E081E231DAF1
:1014900060E083E22EDA61E085E22BDA61E08DE242
:1014A00028DA60E08BE225DA60E089E222DA61E0A6
:1014B00087E21FDA65E070E080E090E097DA60E0B4
:1014C0008FE117DA60E081E214DA60E083E211DA9A
:1014D00060E085E20EDA60E08DE20BDA60E08BE23C
:1014E00008DA60E089E205DA60E087E202DA65E0C6
:1014F00070E080E090E07ADA0150110909F0F7CE4F
:101500000E94D501219709F0F6CC64E670E080E0F6
:1015100090E06CDA32D912CC461657066806790686
:1015200008F0D7CCDDCCEEE4F2E01382128288EE34
:1015300093E0A0E0B0E084839583A683B78386E040
:1015400092E09183808385EC90E09587848784EC9A
:1015500090E09787868780EC90E0918B808B81EC80
:1015600090E0938B828B82EC90E0958B848B86EC61
:1015700090E0978B868B118E128E138E148EEBEE6D
:10158000F2E0168217821086118612861386148660
:10159000158616861786108A118A128A138A148A6B
:1015A000158A0895A1E21A2EAA1BBB1BFD010DC0CE
:1015B000AA1FBB1FEE1FFF1FA217B307E407F50703
:1015C00020F0A21BB30BE40BF50B661F771F881FDF
:1015D000991F1A9469F760957095809590959B0175
:1015E000AC01BD01CF010895EE0FFF1F881F8BBF17
:1015F0000790F691E02D199481E090E0F89400C0F6
:04160000F894FFCF8C
:1016040005000000000050033901E8029C0319039F
:10161400F7020B03270029002B002D0025002300CF
:1016240021001F00564D4450565F317C315F564DAA
:101634004450560D0A00564D4450455F003A323A24
:0A164400007C005F564D4450450045
:020000023000CC
:10E000000D9489F10D94B2F10D94B2F10D94B2F129
:10E010000D94B2F10D94B2F10D94B2F10D94B2F1F0
:10E020000D94B2F10D94B2F10D94B2F10D94B2F1E0
:10E030000D94B2F10D94B2F10D94B2F10D94B2F1D0
:10E040000D94B2F10D94B2F10D94B2F10D94B2F1C0
:10E050000D94B2F10D94B2F10D94B2F10D94B2F1B0
:10E060000D94B2F10D94B2F10D94B2F10D94B2F1A0
:10E070000D94B2F10D94B2F10D94B2F10D94B2F190
:10E080000D94B2F10D94B2F10D94B2F10D94B2F180
:10E090000D94B2F10D94B2F10D94B2F10D94B2F170
:10E0A0000D94B2F10D94B2F10D94B2F10D94B2F160
:10E0B0000D94B2F10D94B2F10D94B2F10D94B2F150
:10E0C0000D94B2F10D94B2F10D94B2F10D94B2F140
:10E0D0000D94B2F10D94B2F10D94B2F10D94B2F130
:10E0E0000D94B2F141546D656761323536300041AF
:10E0F000726475696E6F206578706C6F72657220DE
:10E1000073746B3530305632206279204D4C530099
:10E11000426F6F746C6F616465723E004875683F52
:10E1200000436F6D70696C6564206F6E203D200048
:10E130004350552054797065202020203D20005FF9
:10E140005F4156525F415243485F5F3D2000415658
:10E1500052204C696243205665723D20004743437C
:10E160002056657273696F6E203D20004350552024
:10E1700049442020202020203D20004C6F7720663D
:10E18000757365202020203D20004869676820665F
:10E190007573652020203D200045787420667573D6
:10E1A00065202020203D20004C6F636B2066757336
:10E1B000652020203D20004D617220203720323024
:10E1C000313300312E362E3800342E332E350056A2
:10E1D00023202020414444522020206F7020636F70
:10E1E00064652020202020696E73747275637469E1
:10E1F0006F6E2061646472202020496E74657272B3
:10E20000757074006E6F20766563746F7200726A49
:10E210006D702020006A6D70200057686174207056
:10E220006F72743A00506F7274206E6F7420737541
:10E2300070706F72746564004D7573742062652030
:10E2400061206C6574746572002000577269747483
:10E25000696E672045450052656164696E672045B7
:10E26000450045452065727220636E743D00504F35
:10E27000525400303D5A65726F2061646472003FF1
:10E280003D43505520737461747300403D454550C3
:10E29000524F4D207465737400423D426C696E6B41
:10E2A000204C454400453D44756D70204545505215
:10E2B0004F4D00463D44756D7020464C415348001B
:10E2C000483D48656C70004C3D4C69737420492F83
:10E2D0004F20506F72747300513D51756974005234
:10E2E0003D44756D702052414D00563D73686F7707
:10E2F00020696E7465727275707420566563746FF0
:10E30000727300593D506F727420626C696E6B00BD
:10E310002A0011241FBECFEFD1E2DEBFCDBF01E046
:10E320000CBF12E0A0E0B2E0EEE1FDEF03E00BBFB6
:10E3300002C007900D92A030B107D9F712E0A0E01B
:10E34000B2E001C01D92AE30B107E1F70F9460F367
:10E350000D948DFE01E20EBF0FEF0DBF11241FBE05
:10E360000D9460F30D9400F020E030E040ED57E0B4
:10E3700005C0FA013197F1F72F5F3F4F2817390792
:10E38000C0F308959C01260F311DC901A0E0B0E043
:10E390002F5F3F4FABBFFC018791882361F08093D3
:10E3A000C6008091C00086FFFCCF8091C0008064D1
:10E3B0008093C000EACF08958DE08093C6008091DD
:10E3C000C00086FFFCCF8091C00080648093C000B5
:10E3D0008AE08093C6008091C00086FFFCCF8091C8
:10E3E000C00080648093C00008950F94C2F10F9420
:10E3F000DCF10895FC019081992359F09093C600B7
:10E400008091C00086FFFCCF8091C0008064809323
:10E41000C0003196992379F70895282F982F929567
:10E420009F70892F805D8A3308F0895F8093C600D2
:10E430008091C00086FFFCCF8091C00080648093F3
:10E44000C000822F8F70982F905D9A3308F0995FEB
:10E450009093C6008091C00086FFFCCF8091C000E1
:10E4600080648093C00008959C01FB01853691056E
:10E470001CF46330710594F0C90164E670E00F94F8
:10E480002EFE605D7F4F6093C6008091C00086FFC6
:10E49000FCCF8091C00080648093C0002B30310598
:10E4A00014F43297B4F0C90164E670E00F942EFEC4
:10E4B0006AE070E00F942EFE605D7F4F6093C600AF
:10E4C0008091C00086FFFCCF8091C0008064809363
:10E4D000C000C9016AE070E00F942EFEC0968093E0
:10E4E000C6008091C00086FFFCCF8091C000806490
:10E4F0008093C00008951F93182F8EE692EE60E07F
:10E500000F94C2F11093C6008091C00086FFFCCF2B
:10E510008091C00080648093C0000F94DCF11F9153
:10E5200008952F923F924F925F926F927F928F92B7
:10E530009F92AF92BF92CF92DF92EF92FF920F9392
:10E540001F93DF93CF93CDB7DEB762970FB6F894E2
:10E55000DEBF0FBECDBF382E622ECA01DB015C01CB
:10E560006D01772420E2222E2E010894411C511CBB
:10E570008BC081E0A81680E0B80681E0C80680E084
:10E58000D80628F0C601AA27BB270F940DF2BB2797
:10E59000AD2D9C2D8B2D0F940DF28A2D0F940DF225
:10E5A0002092C6008091C00086FFFCCF8091C00001
:10E5B00080648093C0009DE29093C6008091C0006B
:10E5C00086FFFCCF8091C00080648093C0002092C1
:10E5D000C6008091C00086FFFCCF8091C00080649F
:10E5E0008093C00019828601750188249924A1E0D6
:10E5F0003A1651F03A1620F0B2E03B1661F409C029
:10E600000BBFF701779007C0C7010F9477FE782EF4
:10E6100002C0F7017080872D0F940DF22092C60082
:10E620008091C00086FFFCCF8091C0008064809301
:10E63000C000872D8052F401EF70F0708F3520F408
:10E64000E40DF51D708204C0E40DF51D8EE280839B
:10E650000894E11CF11C011D111D0894811C911CE2
:10E6600090E18916910409F0C2CF80E190E0A0E02A
:10E67000B0E0A80EB91ECA1EDB1E198AC2010F9493
:10E68000FAF10F94DCF16A94662009F072CF629679
:10E690000FB6F894DEBF0FBECDBFCF91DF911F91B3
:10E6A0000F91FF90EF90DF90CF90BF90AF909F9031
:10E6B0008F907F906F905F904F903F902F90089534
:10E6C0002F923F924F925F926F927F928F929F9282
:10E6D000AF92BF92CF92DF92EF92FF920F931F9370
:10E6E000DF93CF93CDB7DEB7CD53D1400FB6F894BB
:10E6F000DEBF0FBECDBF01E20EBF0FEF0DBF94B75F
:10E70000F894A89514BE80916000886180936000A1
:10E7100010926000789493FF05C0E0910002F091A0
:10E7200001021995279A2F9A8091C00082608093E8
:10E73000C00080E18093C40088E18093C1000000A4
:10E74000EE24FF24870144E0A42EB12CCC24DD2448
:10E7500024C0C5010197F1F70894E11CF11C011DCB
:10E76000111D21E2E2162EE4F20620E0020720E06D
:10E77000120718F031E0C32ED12CC801B70127ECE5
:10E780003BE140E050E00F9441FE611571058105C9
:10E79000910519F485B1805885B98091C00087FD35
:10E7A00003C0C114D104A9F2A6014F5F5F4FC25E3E
:10E7B000DE4F59834883CE51D140C25EDE4F8881FF
:10E7C0009981CE51D140019711F00D9410FEC05D9A
:10E7D000DE4F19821882C053D14060E0C15DDE4F28
:10E7E0001882CF52D14088249924C35DDE4F19820C
:10E7F0001882CD52D140C05EDE4F188219821A8233
:10E800001B82C052D140CE5CDE4F188219821A8220
:10E810001B82C253D140EE24FF2487010BBFF701B6
:10E8200007911691C45CDE4F19830883CC53D14005
:10E830000D940BFEC25EDE4F28813981CE51D1404E
:10E840002130310509F52091C600C25EDE4F1982E4
:10E850001882CE51D14022C02F5F3F4F4F4F5F4FA4
:10E86000213082E138078AE7480780E0580780F0C6
:10E87000C45CDE4FE881F981CC53D140EF5FFF4F9C
:10E8800019F0EE27FF27099420E030E040E050E047
:10E890008091C00087FFE0CF2091C600C35DDE4FAE
:10E8A00048815981CD52D1404F5F5F4FC35DDE4FEC
:10E8B00059834883CD52D140213209F063C64A3092
:10E8C000510508F05FC60894811C911C53E0851621
:10E8D000910409F059C600E010E018C081E280936D
:10E8E000C6008091C00086FFFCCF8091C00080648C
:10E8F0008093C0002F5F3F4F2931310579F70F9486
:10E90000DCF10F5F1F4F0530110519F020E030E0FA
:10E91000E5CF10920A0210920B0210920C02109294
:10E920000D02109206021092070210920802109235
:10E930000902109202021092030210920402109235
:10E9400005028FEE90EE60E00F94F5F180E191EE1C
:10E9500060E00F94C2F18091C00087FFFCCF9091DE
:10E96000C600903608F09F759032B8F09093C600BC
:10E970008091C00086FFFCCF8091C00080648093AE
:10E98000C000A0E2A093C6008091C00086FFFCCF2B
:10E990008091C00080648093C000983409F4D7C18E
:10E9A0009934B8F4923409F459C1933458F490333B
:10E9B00019F1903308F4E3C59F33A1F1903409F0C5
:10E9C000DEC5BDC0953409F470C1963409F0D7C5D1
:10E9D00098C1923509F42BC2933538F49C3409F46C
:10E9E000F5C1913509F0CBC518C2963509F445C279
:10E9F000993509F0C4C567C483E792EE62E00F94CD
:10EA0000F5F110920602109207021092080210927D
:10EA1000090210920A0210920B0210920C0210923C
:10EA20000D0213C18FE792EE62E00F94F5F18FEEC5
:10EA300090EE60E00F94F5F181E291EE60E00F94CA
:10EA4000C2F187EB91EE60E00F94F5F180E391EE77
:10EA500060E00F94C2F184EE90EE60E00F94F5F167
:10EA60008FE391EE60E00F94C2F186E090E061E008
:10EA700070E00F9434F20F94DCF18DE591EE60E0DC
:10EA80000F94C2F189EC91EE60E00F94F5F18EE401
:10EA900091EE60E00F94C2F183EC91EE60E00F9490
:10EAA000F5F18CE691EE60E00F94C2F18EE10F94E7
:10EAB0000DF288E90F940DF281E00F940DF20F949E
:10EAC000DCF18BE791EE60E00F94C2F119E0E0E039
:10EAD000F0E010935700E4918E2F0F940DF20F94F5
:10EAE000DCF18AE891EE60E00F94C2F1E3E0F0E03F
:10EAF00010935700E4918E2F0F940DF20F94DCF1D8
:10EB000089E991EE60E00F94C2F1E2E0F0E0109349
:10EB10005700E4918E2F0F940DF20F94DCF188EAE8
:10EB200091EE60E00F94C2F1E1E0F0E01093570045
:10EB30001491812F0F940DF20F94DCF107CF8BE825
:10EB400092EE62E00F94F5F18BE492EE60E00F94A8
:10EB5000F5F10F94DCF100E010E019C0C8016F2D51
:10EB60000F947FFEFF2031F489E492EE60E00F9471
:10EB7000C2F10BC0F092C6008091C00086FFFCCFAE
:10EB80008091C00080648093C0000F5F1F4FC80158
:10EB900081519F41A0E0B0E0ABBFFC01F790BAE229
:10EBA000FB1621F0E2E000301E07C1F60F94DCF105
:10EBB0000F94DCF187E592EE60E00F94F5F10F948D
:10EBC000DCF1CC24DD2400E010E01EC0C8010F946D
:10EBD00077FEF82E882331F489E492EE60E00F94FA
:10EBE000C2F10BC08093C6008091C00086FFFCCFAD
:10EBF0008091C00080648093C000FE1419F00894D6
:10EC0000C11CD11C0F5F1F4FC80181519F41A0E063
:10EC1000B0E0ABBFFC01E790FAE2EF1621F022E092
:10EC20000030120799F60F94DCF10F94DCF182E6C4
:10EC300092EE60E00F94C2F1C60161E070E00F94C3
:10EC400034F20F94DCF10F94DCF110920202109276
:10EC50000302109204021092050278CE89E992EE26
:10EC600062E00F94F5F1279A2F9A16C02F9880E052
:10EC700090E0E0EDF7E03197F1F7019684369105E9
:10EC8000C1F72F9A80E090E0E0EDF7E03197F1F7DF
:10EC9000019684369105C1F78091C00087FFE6CFC9
:10ECA0008091C00087FFFCCF64C485EA92EE62E0E9
:10ECB0000F94F5F140910202509103026091040219
:10ECC0007091050281E020E10F9491F2809102029F
:10ECD00090910302A0910402B091050280509F4FD1
:10ECE000AF4FBF4F8093020290930302A0930402A0
:10ECF000B093050280509041A040B04008F426CE69
:10ED0000A4CF83EB92EE62E00F94F5F140910602FE
:10ED100050910702609108027091090280E020E1A1
:10ED20000F9491F28091060290910702A09108023F
:10ED3000B091090280509F4FAF4FBF4F80930602A2
:10ED400090930702A0930802B0930902FFCD80ECD4
:10ED500092EE62E00F94F5F183E792EE60E00F949B
:10ED6000F5F18FE792EE60E00F94F5F18BE892EE0B
:10ED700060E00F94F5F189E992EE60E00F94F5F10F
:10ED800085EA92EE60E00F94F5F183EB92EE60E09D
:10ED90000F94F5F180EC92EE60E00F94F5F187ECC2
:10EDA00092EE60E00F94F5F188ED92EE60E00F9442
:10EDB000F5F18FED92EE60E00F94F5F18AEE92EEB0
:10EDC00060E00F94F5F183E093EEBDCD87EC92EE19
:10EDD00062E00F94F5F181E40F947BF282E40F94EA
:10EDE0007BF283E40F947BF284E40F947BF285E45E
:10EDF0000F947BF286E40F947BF287E40F947BF20E
:10EE000088E40F947BF28AE40F947BF28BE40F94F6
:10EE10007BF28CE40F947BF299CD88ED92EE62E068
:10EE20000F94F5F1772473948824992409C48FED05
:10EE300092EE62E00F94F5F140910A0250910B02BC
:10EE400060910C0270910D0282E020E10F9491F22A
:10EE500080910A0290910B02A0910C02B0910D02D8
:10EE600080509F4FAF4FBF4F80930A0290930B0289
:10EE7000A0930C02B0930D0269CD8AEE92EE62E08F
:10EE80000F94F5F184EE90EE60E00F94F5F18FECC5
:10EE900091EE60E00F94F5F1662477244301CC5D98
:10EEA000DE4F19821882C452D140D401C301B695F5
:10EEB000A79597958795CA5DDE4F88839983AA8326
:10EEC000BB83C652D140CC5DDE4FA881B981C4520C
:10EED000D1401196CC5DDE4FB983A883C452D14096
:10EEE000CD0162E070E00F9434F2B0E2B093C6005E
:10EEF0008091C00086FFFCCF8091C0008064809329
:10EF0000C000EDE2E093C6008091C00086FFFCCF18
:10EF10008091C00080648093C000F0E2F093C6004E
:10EF20008091C00086FFFCCF8091C00080648093F8
:10EF3000C000CA5DDE4FE880F9800A811B81C6529D
:10EF4000D140BB27A12F902F8F2D0F940DF2CA5DBA
:10EF5000DE4F8881C652D1400F940DF2B0E2FB2EF5
:10EF6000F092C6008091C00086FFFCCF8091C00067
:10EF700080648093C0000DE30093C6008091C000C0
:10EF800086FFFCCF8091C00080648093C00010E2B7
:10EF90001093C6008091C00086FFFCCF8091C00016
:10EFA00080648093C0008BBEF3012791C65DDE4F65
:10EFB0002883CA52D140A22EBB24CC24DD2408943D
:10EFC000611C711C811C911C8BBEF3018791282E42
:10EFD0003324442455240894611C711C811C911C09
:10EFE0008BBEF3013791C55DDE4F3883CB52D140E4
:10EFF0000894611C711C811C911C8BBEF30147910C
:10F00000C45DDE4F4883CC52D140ADEFEA2EAFEF66
:10F01000FA2EAFEF0A2FAFEF1A2F6E0C7F1C801E57
:10F02000911E142D032DF22CEE24EA0CFB1C0C1D5A
:10F030001D1D0F940DF220E22093C6008091C000A8
:10F0400086FFFCCF8091C00080648093C000C65DC5
:10F05000DE4F8881CA52D1400F940DF230E23093D6
:10F06000C6008091C00086FFFCCF8091C000806404
:10F070008093C000C45DDE4F8881CC52D1400F9494
:10F080000DF240E24093C6008091C00086FFFCCFA5
:10F090008091C00080648093C000C55DDE4F888190
:10F0A000CB52D1400F940DF250E25093C6008091A4
:10F0B000C00086FFFCCF8091C00080648093C000B8
:10F0C0008FEFE8168FEFF80680E0080780E018075A
:10F0D00031F484E092EE60E00F94C2F1DFC0D80119
:10F0E000C7018070907CA070B0708050904CA040A0
:10F0F000B040D1F52FEF3FE340E050E0E222F322B1
:10F1000004231523CA5DDE4FA880B980CA80DB8046
:10F11000C652D140AE0CBF1CC01ED11EAA0CBB1CD7
:10F12000CC1CDD1C8EE092EE60E00F94C2F1BB2798
:10F13000A12F902F8F2D0F940DF28E2D0F940DF285
:10F1400030E23093C6008091C00086FFFCCF8091F2
:10F15000C00080648093C0004EE34093C60080915D
:10F16000C00086FFFCCF87C08EE09EEFA0E0B0E03D
:10F17000E822F9220A231B239CE0E91694E9F90608
:10F1800090E0090790E0190709F088C0C45DDE4FE0
:10F19000A881CC52D140EA2EFF2400E010E0102FCD
:10F1A0000F2DFE2CEE24C55DDE4FB881CB52D14031
:10F1B000EB0EF11C011D111DD601C501817090706F
:10F1C000A070B070DC0199278827E80EF91E0A1F8D
:10F1D0001B1F20EF30E040E050E0A222B322C42207
:10F1E000D52241E1AA0CBB1CCC1CDD1C4A95D1F7F1
:10F1F000EA0CFB1C0C1D1D1D81E090E0A0E0B0E0BE
:10F20000282239224A225B2235E1220C331C441C7D
:10F21000551C3A95D1F7E20CF31C041D151D57013E
:10F220006801AA0CBB1CCC1CDD1C85E192EE60E0E1
:10F230000F94C2F1C801AA27BB270F940DF2BB2778
:10F24000A12F902F8F2D0F940DF28E2D0F940DF274
:10F2500090E29093C6008091C00086FFFCCF809121
:10F26000C00080648093C000AEE3A093C60080918C
:10F27000C00086FFFCCF8091C00080648093C000F6
:10F28000C601AA27BB270F940DF2BB27AD2D9C2DDD
:10F290008B2D0F940DF28A2D0F940DF20F94DCF14B
:10F2A000CC5DDE4FE881F981C452D140F99709F471
:10F2B0004DCBF4E0EF2EF12C012D112D6E0C7F1CA7
:10F2C000801E911EF2CD83E093EE62E00F94F5F183
:10F2D0008AE192EE60E00F94C2F18091C00087FF56
:10F2E000FCCF1091C6001F751093C6008091C0001E
:10F2F00086FFFCCF8091C00080648093C0000F9493
:10F30000DCF1812F81548A3108F036C1163409F4BA
:10F3100095C0173490F4133409F44EC0143430F40B
:10F320001134F1F0123409F01DC130C0143409F465
:10F3300059C0153409F016C16BC01A3409F4C4C0A1
:10F340001B3438F4173409F48FC0183409F00AC19B
:10F35000A1C01B3409F4D2C01C3409F003C1E8C0B9
:10F360008FEF81B90DC082B1809582B980E090E0C5
:10F37000E0EDF7E03197F1F70196883C9105C1F790
:10F380008091C00087FFEFCF12B8EFC08FEF84B934
:10F390000DC085B1809585B980E090E0E0EDF7E0A3
:10F3A0003197F1F70196883C9105C1F78091C00033
:10F3B00087FFEFCF15B8D9C08FEF87B90DC088B1DF
:10F3C000809588B980E090E0E0EDF7E03197F1F7C3
:10F3D0000196883C9105C1F78091C00087FFEFCF6F
:10F3E00018B8C3C08FEF8AB90DC08BB180958BB9A7
:10F3F00080E090E0E0EDF7E03197F1F70196883C8E
:10F400009105C1F78091C00087FFEFCF1BB8ADC059
:10F410008FEF8DB90DC08EB180958EB980E090E0F0
:10F42000E0EDF7E03197F1F70196883C9105C1F7DF
:10F430008091C00087FFEFCF1EB897C08FEF80BBD1
:10F440000DC081B3809581BB80E090E0E0EDF7E0F6
:10F450003197F1F70196883C9105C1F78091C00082
:10F4600087FFEFCF11BA81C08FEF83BB0DC084B38C
:10F47000809584BB80E090E0E0EDF7E03197F1F714
:10F480000196883C9105C1F78091C00087FFEFCFBE
:10F4900014BA6BC08FEF809301010FC080910201FD
:10F4A00080958093020180E090E0E0EDF7E03197F5
:10F4B000F1F70196883C9105C1F78091C00087FF64
:10F4C000EDCF1092020151C08FEF809304010FC065
:10F4D0008091050180958093050180E090E0E0ED4A
:10F4E000F7E03197F1F70196883C9105C1F78091DB
:10F4F000C00087FFEDCF1092050137C08FEF8093DA
:10F5000007010FC08091080180958093080180E079
:10F5100090E0E0EDF7E03197F1F70196883C910536
:10F52000C1F78091C00087FFEDCF109208011DC088
:10F530008FEF80930A010FC080910B01809580931B
:10F540000B0180E090E0E0EDF7E03197F1F70196F4
:10F55000883C9105C1F78091C00087FFEDCF1092E4
:10F560000B0103C085E292EEEEC98091C00087FFD7
:10F57000FCCF8091C600EAC988E392EEE4C98CE131
:10F5800091EEE1C988249924933011F1943028F444
:10F59000913089F09230B8F408C0953061F195301F
:10F5A000F0F0963009F048C043C02B3109F042C951
:10F5B00091E06BE13FC96227C15DDE4F2883CF52E6
:10F5C000D14092E037C9B22FA0E0622793E032C960
:10F5D000822F90E0A82BB92B622794E02BC92E3004
:10F5E00009F039C3622795E0C05DDE4F19821882A9
:10F5F000C053D1401FC9E1E0F0E0EC0FFD1FC05D3A
:10F60000DE4F08811981C053D140E00FF11F2083E4
:10F610000F5F1F4FC05DDE4F19830883C053D14079
:10F6200062270A171B0709F005C9D80196E002C92D
:10F63000261709F010C303C0973009F0FBC87724E0
:10F640009981933109F412C19431C8F4963009F4C8
:10F65000D8C0973050F4923009F406C1933009F4C1
:10F660006DC0913009F059C253C0913109F477C08F
:10F67000923108F0BBC0903109F04FC2F5C098310B
:10F6800009F487C0993150F4953109F4EFC09531F0
:10F6900008F4C6C1963109F040C2C2C19A3109F4DA
:10F6A0006CC09A3108F491C09B3109F45BC09D3164
:10F6B00009F033C29D81903359F48F81882311F46E
:10F6C0009EE11CC0813011F091E018C098E916C08D
:10F6D000892F807591F0903539F4E0E0F0E089E011
:10F6E0008093570094910AC0983539F4E3E0F0E034
:10F6F00089E080935700949101C090E01A821B82A8
:10F700008D818C831D829E831F8227E030E009C299
:10F710001A8288E08B8381E48C8386E58D8382E581
:10F720008E8389E48F8383E5888780E589878FE5E9
:10F730008A8782E38B872BE030E0F3C18A818139AD
:10F7400041F0823941F0803911F48FE005C080E04A
:10F7500003C082E001C08AE01A828B8344C0772410
:10F76000739482C08D81882311F48EE12CC0813086
:10F7700011F081E028C088E926C01A82E1E0F0E0BB
:10F7800089E08093570084918B831C8224E030E0D1
:10F79000C8C18B81803589F48C81883039F4E2E0EE
:10F7A000F0E089E08093570084910DC0E0E0F0E044
:10F7B00089E080935700849106C0E3E0F0E089E09F
:10F7C0008093570084911A82DFCF8D81836C99E0FA
:10F7D000E1E0F0E0082E90935700E89507B600FCB2
:10F7E000FDCF1A821B8223E030E09BC180EC8A832C
:10F7F000CE5CDE4F188219821A821B82C253D1401E
:10F800008EC18A8190E0A0E0B0E0582F44273327D2
:10F8100022278B8190E0A0E0B0E0DC0199278827C7
:10F82000282B392B4A2B5B2B8D8190E0A0E0B0E098
:10F83000282B392B4A2B5B2B8C8190E0A0E0B0E089
:10F84000BA2FA92F982F8827282B392B4A2B5B2BCF
:10F85000220F331F441F551FC05EDE4F288339839C
:10F860004A835B83C052D1401A8259C13A81C95C34
:10F87000DE4F3883C753D140CA5CDE4F1882C6536F
:10F88000D1408B81C82EDD24CA5CDE4F488159816E
:10F89000C653D140C42AD52A933109F082C0CE5C28
:10F8A000DE4F88819981AA81BB81C253D1408050AB
:10F8B000904CA340B04030F583E0CE5CDE4FE88052
:10F8C000F9800A811B81C253D140F70100935B008C
:10F8D00080935700E89507B600FCFDCFCE5CDE4F65
:10F8E000088119812A813B81C253D14000501F4FAA
:10F8F0002F4F3F4FCE5CDE4F088319832A833B8313
:10F90000C253D140C05EDE4F488159816A817B81FC
:10F91000C052D140DE011B9631E08C9111962C91A2
:10F9200011971296C75CDE4F2883C953D140C85C3B
:10F93000DE4F1882C853D14090E0C85CDE4FE881AA
:10F94000F981C853D1408E2B9F2B0C01FA01609393
:10F950005B0030935700E89511244E5F5F4F6F4F67
:10F960007F4F0EEFE02E0FEFF02ECE0CDF1CC114F8
:10F97000D10499F685E0C05EDE4F088119812A81A5
:10F980003B81C052D140F80120935B008093570027
:10F99000E89507B600FCFDCF81E180935700E8951C
:10F9A00035C0C05EDE4F88819981AA81BB81C0527B
:10F9B000D140B695A795979587957C018601ABE0D8
:10F9C000AA2EB12CAC0EBD1E0BC0D5016D915D01F0
:10F9D000C7010F947FFE0894E11CF11C01501040F8
:10F9E0000115110591F7A60160E070E0440F551F65
:10F9F000661F771FC05EDE4FE880F9800A811B8199
:10FA0000C052D1404E0D5F1D601F711F1A82C05E33
:10FA1000DE4F488359836A837B83C052D1407FC0C5
:10FA2000FA80C55CDE4FF882CB53D140C65CDE4F16
:10FA30001882CA53D1408B81C82EDD24C65CDE4FAC
:10FA400008811981CA53D140C02AD12A1A828981DA
:10FA5000BE016D5F7F4F843121F59601C05EDE4FA0
:10FA6000E880F9800A811B81C052D1400BBFF701A9
:10FA700087919691DB018C9311969C936E5F7F4FDB
:10FA8000D801C7010296A11DB11DC05EDE4F88835B
:10FA90009983AA83BB83C052D14022503040F1F6F3
:10FAA00036C0C05EDE4F288139814A815B81C052F9
:10FAB000D1400894C108D108760100E010E0089414
:10FAC000C11CD11C0894E11CF11C011D111DE20E8A
:10FAD000F31E041F151F21BDBB27A52F942F832FB5
:10FAE00082BD2F5F3F4F4F4F5F4FF89A80B5DB01CC
:10FAF0008D93BD012E153F054007510761F7C05E8C
:10FB0000DE4F288339834A835B83C052D1409601FC
:10FB10002D5F3F4FFB01108204C080EC8A8322E0FE
:10FB200030E08BE18093C6008091C00086FFFCCF5F
:10FB30008091C00080648093C000C15DDE4FF88179
:10FB4000CF52D140F093C6008091C00086FFFCCF19
:10FB50008091C00080648093C000432F3093C60022
:10FB60008091C00086FFFCCF8091C00080648093AC
:10FB7000C000922F2093C6008091C00086FFFCCF6A
:10FB80008091C00080648093C0008EE08093C600A6
:10FB90008091C00086FFFCCF8091C000806480937C
:10FBA000C00065E1C15DDE4FE880CF52D1406E25D7
:10FBB00069276427FE01319610C090819093C6009A
:10FBC0008091C00086FFFCCF31968091C000806498
:10FBD0008093C0006927215030402115310569F715
:10FBE0006093C6008091C00086FFFCCF8091C0006A
:10FBF00080648093C00085B1805885B9772081F4F6
:10FC0000C15DDE4F0881CF52D1400F5FC15DDE4F35
:10FC10000883CF52D14090E0A0E0B0E00D941AF4F8
:10FC200027982F9880E090E020ED37E0F901319798
:10FC3000F1F7019684369105C9F700008091C00064
:10FC40008D7F8093C00081E180935700E895EE2777
:10FC5000FF270994FFCF90E00D941AF497FB092E2B
:10FC600007260AD077FD04D02ED006D000201AF443
:10FC7000709561957F4F0895F6F7909581959F4F08
:10FC80000895A1E21A2EAA1BBB1BFD010DC0AA1FDD
:10FC9000BB1FEE1FFF1FA217B307E407F50720F0F5
:10FCA000A21BB30BE40BF50B661F771F881F991F70
:10FCB0001A9469F760957095809590959B01AC01B9
:10FCC000BD01CF010895AA1BBB1B51E107C0AA1FAC
:10FCD000BB1FA617B70710F0A61BB70B881F991FED
:10FCE0005A95A9F780959095BC01CD010895F99991
:10FCF000FECF92BD81BDF89A992780B50895262F31
:10FD0000F999FECF1FBA92BD81BD20BD0FB6F89400
:0EFD1000FA9AF99A0FBE01960895F894FFCF63
:040000033000E000E9
:00000001FF